:100000000C942A000C9447000C9447000C94470071
:100010000C9447000C9447000C947F320C94B2323D
:100020000C94E5320C9418330C9447000C94470060
:100030000C9447000C9447000C9447000C94470024
:100040000C947D1C0C9447000C9447000C944700C2
:100050000C94470011241FBECFE5D8E0DEBFCDBF12
:1000600011E0A0E6B0E0E6E7FCE602C005900D92E4
:10007000AC3AB107D9F712E0ACEAB1E001C01D9289
:10008000A033B107E1F70E9473330C9439360C9416
:100090000000EF92FF920F93DF93CF93CDB7DEB7BF
:1000A00060970FB6F894DEBF0FBECDBFA82F002318
:1000B00009F467C07E010894E11CF11C88E0F70197
:1000C00011928A95E9F729833A834B835C836D8388
:1000D0007E83AF83988780E2801B4D815E816F8134
:1000E0007885E82FFF27E7FDF0951816B4F0DB01BF
:1000F000CA01BB0F880B982FDC018D879E87AF87C5
:10010000B88B882799278E1B9F0B04C07595679520
:10011000579547958A95D2F728C0202F332727FD7A
:100120003095DB01CA01022E04C0B595A7959795BD
:1001300087950A94D2F78D879E87AF87B88B04C0C6
:10014000440F551F661F771FEA95D2F789819A8160
:10015000AB81BC8104C0B695A795979587952A95E4
:10016000D2F7482B592B6A2B7B2B49875A876B87F1
:100170007C8729853A854B855C856D857E85AF8535
:1001800098898A2F60960FB6F894DEBF0FBECDBF58
:10019000CF91DF910F91FF90EF900895EF92FF9232
:1001A0000F931F937B018C0120E030E040E05FE47F
:1001B0000E94FB1588238CF0C801B70120E030E0D5
:1001C00040E05FE40E94C7130E945B169B01AC01F4
:1001D000205030404040504806C0C801B7010E943E
:1001E0005B169B01AC01B901CA011F910F91FF90F1
:1001F000EF900895EF92FF920F931F937B018C0174
:1002000020E030E040E050E00E942B1688230CF004
:100210005CC0C801B70190580E946E012195E1E0D1
:10022000121608F0E0E03195F1E0131608F0F0E066
:10023000E32EEE1AE1E03E1508F0E0E0FE2B4195DA
:10024000A1E0141608F0A0E0F42EFF1AE1E04F152B
:1002500008F0E0E0AE2B5195F1E0151608F0F0E063
:10026000052F0A1BE1E0501708F0E0E0FE2B619536
:10027000A1E0161608F0A0E0162F1F1BE1E06117A1
:1002800008F0E0E0AE2B7195F1E0171608F0F0E011
:10029000B72FBA1BE1E07B1708F0E0E0FE2B819559
:1002A000A1E0181608F0A0E0382F3F1BF32FE1E083
:1002B000831708F0E0E0AE2B91953E2D4F2D502F87
:1002C000612F7B2F8F2F9A1B04C0C801B7010E949A
:1002D0006E011F910F91FF90EF900895A0E0B0E0A4
:1002E000E4E7F1E00C9402367B018C0120E030E081
:1002F00040E85FE30E942B1688234CF4AA24BB2419
:10030000CC24DD24EE24FF2400E010E086C0C801E8
:10031000B70120E030E040E85FE40E942B1688231C
:1003200054F4C801B7010E94CE005B016C01EE24B9
:10033000FF24870172C0C801B70120E030E040E827
:100340005FE50E942B1687FD0FC0AA24AA94BB2448
:10035000BA94CC24CA94DD24DA94EE24EA94FF24DF
:10036000FA940FEF1FEF59C0C801B70120E030E049
:1003700040E85FE20E9425147B018C012224332493
:10038000210190E1A92EB12CC12CD12CC0E0D0E0EC
:1003900061E070E080E090E00A2C04C0660F771FF7
:1003A000881F991F0A94D2F70E94AF163B014C0197
:1003B000C801B701A40193010E94FB15882364F0D2
:1003C0002A283B284C285D28C801B701A4019301C5
:1003D0000E941F157B018C01D694C794B794A794F3
:1003E0002196C530D105A1F6C801B70120E030E063
:1003F00040E85FE40E9425140E94CE005B016C017E
:100400009B01A60160E070E080E090E0022D0E9478
:10041000281759016A017B018C019501A601B701DA
:10042000C801CDB7DEB7E2E10C941E36A2E7B0E01A
:10043000ECE1F2E00C940236982E892E712E88E0C1
:10044000FE013196DF01682E1D926A94E9F7298337
:100450003A834B835C836D837E839F829887FE0102
:100460003996DF011D928A95E9F7A986BA86CB866F
:10047000DC86ED86FE860F87188B8D819E81AF818D
:10048000B885B7FD07C0E1961CAE1DAE1EAE1FAE0F
:10049000E19764C0219581E0121608F080E0319563
:1004A00091E0131608F090E0B32FB81B81E03B17E2
:1004B00008F080E0982B419531E0141608F030E008
:1004C000A42FA91B81E04A1708F080E0382B519532
:1004D00091E0151608F090E0F52FF31B81E05F170F
:1004E00008F080E0982B619531E0161608F030E0B6
:1004F000E62FE91B81E06E1708F080E0382B71953C
:1005000041E0171608F040E0572F531B81E07517A4
:1005100008F080E0482B892D819591E0181608F0AD
:1005200090E0682E641A462D31E0861508F030E020
:10053000932B882D8195891B2983BA83AB83FC83F8
:10054000ED835E834F8388872FEF3FEF4FEF5FEFA1
:10055000E1962CAF3DAF4EAF5FAFE1978D859E85A5
:10056000AF85B889B7FF6AC0E1964CAD5DAD6EADA1
:100570007FADE1974095509560957095E1964CAFB1
:100580005DAF6EAF7FAFE197A19481E01A1408F0E0
:1005900080E0B19491E01B1408F090E06B2D681B93
:1005A00081E0B61608F080E0982BC19421E01C147D
:1005B00008F020E05C2D591B81E0C51608F080E0B2
:1005C000282BD19491E01D1408F090E04D2D421B92
:1005D00081E0D41608F080E0982BE19421E01E140D
:1005E00008F020E03E2D391B81E0E31608F080E0A2
:1005F000282BF19491E01F1408F090E07F2D721BDE
:10060000272F81E0F71608F080E0982B019511E084
:10061000101608F010E0802F891B982F81E0091731
:1006200008F080E0182B872D8195811BA9866A87A9
:100630005B874C873D872E879F87888B99812A818E
:100640003B814C815D816E817F81A885B9851A854A
:100650000B85FC84ED84DE84CF84B88888E0E1E1FA
:100660008E2E912C8C0E9D1EF401682E11926A9490
:10067000E9F7998B2A8B3B8B4C8B5D8B6E8B7F8B39
:10068000A88F9E01275E3F4FF90111928A95E9F7E5
:10069000B98F1A8F0B8FFC8EED8EDE8ECF8EB8A2A7
:1006A000298C3A8C4B8C5C8CED8CFE8C0F8D18A1B8
:1006B00069887A888B889C8821966CAE7DAE8EAED8
:1006C0009FAE21976D887E888F88988CE114F10405
:1006D0000105110509F0D9C362147304840495045B
:1006E00008F057C100E0201600E0300601E04006A7
:1006F00000E0500688F41FEF211631044104510434
:1007000039F030F048E0E42EF12C012D112D18C005
:10071000EE24FF24870114C020E0221620E03206D8
:1007200020E0420621E0520630F038E1E32EF12CC1
:10073000012D112D05C020E1E22EF12C012D112DEE
:10074000D201C1010E2C04C0B695A7959795879547
:100750000A94D2F786569F4FDC012C9180E290E0FC
:10076000A0E0B0E08E199F09A00BB10B7C018D01B8
:10077000E21AF10801091109E114F104010511055A
:10078000D1F10E2C04C0220C331C441C551C0A94BD
:10079000D2F7A40193010E2C04C0220F331F441F73
:1007A000551F0A94D2F780E290E08E199F09219696
:1007B0006CAC7DAC8EAC9FAC219704C096948794B2
:1007C000779467948A95D2F7622A732A842A952AA5
:1007D0002196ACACBDACCEACDFAC219704C0AA0C6A
:1007E000BB1CCC1CDD1CEA94D2F72196ACAEBDAE8E
:1007F000CEAEDFAE21976201EE24FF242996CCAE67
:10080000DDAEEEAEFFAE299792018101207030700F
:100810002D960CAF1DAF2EAF3FAF2D97C401B30186
:10082000A70196010E94E0357B018C01C401B30150
:1008300029962CAD3DAD4EAD5FAD29970E94E035B8
:10084000C901DA013C014D01C401B3012D962CAD63
:100850003DAD4EAD5FAD2D970E94C1359B01AC0102
:100860008701FF24EE242196ACACBDACCEACDFAC4E
:100870002197C601AA27BB2757016801A82AB92AD0
:10088000CA2ADB2AA216B306C406D506E0F40894E9
:100890006108710881089108A20CB31CC41CD51C06
:1008A000A214B304C404D50470F0A216B306C4069F
:1008B000D50648F408946108710881089108A20CD3
:1008C000B31CC41CD51CA21AB30AC40AD50AC6019B
:1008D000B50129962CAD3DAD4EAD5FAD29970E9477
:1008E000E0357B018C01C601B50129962CAD3DADEB
:1008F0004EAD5FAD29970E94E035C901DA015C0178
:100900006D01C601B5012D962CAD3DAD4EAD5FAD6F
:100910002D970E94C1359B01AC018701FF24EE2475
:1009200021968CAD9DADAEADBFAD2197A070B070DE
:10093000E82AF92A0A2B1B2BE216F30604071507EF
:10094000C0F40894A108B108C108D108E20CF31C56
:10095000041D151DE214F3040405150550F0E216FC
:10096000F3060407150728F40894A108B108C10884
:10097000D108D3019927882786017501E82AF92A29
:100980000A2B1B2B2596ECAEFDAE0EAF1FAF2597A5
:10099000EBC4211431044104510471F461E070E0AE
:1009A00080E090E020E030E040E050E00E94E03560
:1009B000C901DA011C012D0100E0201600E030061B
:1009C00001E0400600E0500688F41FEF21163104D4
:1009D0004104510431F028F048E050E060E070E05C
:1009E00017C040E050E060E070E012C020E0221646
:1009F00020E0320620E0420621E0520628F048E1DD
:100A000050E060E070E004C040E150E060E070E081
:100A1000D201C101042E04C0B695A795979587957C
:100A20000A94D2F786569F4FDC012C91E0E2EE2E1D
:100A3000F12C012D112DD801C701841B950BA60B9C
:100A4000B70B821B9109A109B1090097A105B10556
:100A500061F464015301A218B308C408D50831E059
:100A6000632E712C812C912C24C1E3968FAFE397D8
:100A7000082E04C0220C331C441C551C0A94D2F7C7
:100A8000EE2DE81B640153010E2E04C0D694C794CA
:100A9000B794A7940A94D2F7A4019301E3960FACFC
:100AA000E39704C0220F331F441F551F0A94D2F747
:100AB00021966CAC7DAC8EAC9FAC21970E2E04C001
:100AC00096948794779467940A94D2F7840173017B
:100AD000E22AF32A042B152BE9AEFAAE0BAF1CAFBA
:100AE000320188249924920181012070307061962E
:100AF0000CAF1DAF2EAF3FAF6197C601B501A4018A
:100B000093010E94E0357B018C01C601B501A4016F
:100B100093010E94E035C901DA0165968CAF9DAF63
:100B2000AEAFBFAF6597BC01CD0161962CAD3DADB9
:100B30004EAD5FAD61970E94C1359B01AC0187014D
:100B4000FF24EE24A9ACBAACCBACDCACC601AA271E
:100B5000BB275C016D01AE28BF28C02AD12AA2168E
:100B6000B306C406D50660F565966CAD7DAD8EAD59
:100B70009FAD6597615070408040904065966CAF26
:100B80007DAF8EAF9FAF6597A20CB31CC41CD51C64
:100B9000A214B304C404D50498F0A216B306C40684
:100BA000D50670F4615070408040904065966CAFFF
:100BB0007DAF8EAF9FAF6597A20CB31CC41CD51C34
:100BC000A21AB30AC40AD50AC601B501A401930149
:100BD0000E94E0357B018C01C601B501A40193019F
:100BE0000E94E035C901DA013C014D01C401B301A5
:100BF00061962CAD3DAD4EAD5FAD61970E94C135A4
:100C00009B01AC018701FF24EE2489AD9AADABAD09
:100C1000BCADA070B07057016801A82AB92ACA2AD1
:100C2000DB2AA216B306C406D506E0F408946108D0
:100C3000710881089108A20CB31CC41CD51CA21415
:100C4000B304C404D50470F0A216B306C406D506D6
:100C500048F408946108710881089108A20CB31C3B
:100C6000C41CD51C21968CAD9DADAEADBFAD2197FA
:100C7000E3960FACE39704C0880F991FAA1FBB1F10
:100C80000A94D2F721968CAF9DAFAEAFBFAF21973C
:100C9000A21AB30AC40AD50A6596ECACFDAC0EAD37
:100CA0001FAD6597D70199278827682A792A8A2A4C
:100CB0009B2A82012227332769960CAF1DAF2EAFE6
:100CC0003FAF6997A2019101407050706D962CAFB3
:100CD0003DAF4EAF5FAF6D97C601B50169962CADC4
:100CE0003DAD4EAD5FAD69970E94E0357B018C0153
:100CF000C601B50169962CAD3DAD4EAD5FAD6997AE
:100D00000E94E035C901DA01A1968CAF9DAFAEAF6C
:100D1000BFAFA197BC01CD016D962CAD3DAD4EADE1
:100D20005FAD6D970E94C1359B01AC018701FF2427
:100D3000EE242196ACACBDACCEACDFAC2197C601A5
:100D4000AA27BB2757016801A82AB92ACA2ADB2A81
:100D5000A216B306C406D50660F5A1966CAD7DADAE
:100D60008EAD9FADA1976150704080409040A1969C
:100D70006CAF7DAF8EAF9FAFA197A20CB31CC41C0C
:100D8000D51CA214B304C404D50498F0A216B3066B
:100D9000C406D50670F46150704080409040A19622
:100DA0006CAF7DAF8EAF9FAFA197A20CB31CC41CDC
:100DB000D51CA21AB30AC40AD50AC601B5016996A0
:100DC0002CAD3DAD4EAD5FAD69970E94E0357B0126
:100DD0008C01C601B50169962CAD3DAD4EAD5FAD40
:100DE00069970E94E035C901DA015C016D01C60115
:100DF000B5016D962CAD3DAD4EAD5FAD6D970E94CA
:100E0000C1359B01AC018701FF24EE2421968CADF6
:100E10009DADAEADBFAD2197A070B070E82AF92AA4
:100E20000A2B1B2BE216F30604071507C0F40894DF
:100E3000A108B108C108D108E20CF31C041D151D5E
:100E4000E214F3040405150550F0E216F306040756
:100E5000150728F40894A108B108C108D108A19683
:100E6000ECACFDAC0EAD1FADA197D701992788273B
:100E700096018501082B192B2A2B3B2B25960CAFAD
:100E80001DAF2EAF3FAF259772C26E147F04800650
:100E9000910608F45FC220E0E21620E0F20621E0AD
:100EA000020720E0120788F43FEFE316F104010582
:100EB000110531F028F048E050E060E070E017C024
:100EC00040E050E060E070E012C040E0E41640E036
:100ED000F40640E0040741E0140728F048E150E040
:100EE00060E070E004C040E150E060E070E0D801F4
:100EF000C701042E04C0B695A795979587950A94C7
:100F0000D2F786569F4FDC012C9130E2A32EB12CF4
:100F1000C12CD12CD601C501841B950BA60BB70B98
:100F2000821B9109A109B1090097A105B10599F4A6
:100F3000E614F7040805190508F4FEC121966CAC07
:100F40007DAC8EAC9FAC219762147304840495042D
:100F500008F0F2C1FFC1E2968FAFE297082E04C0FD
:100F6000EE0CFF1C001F111F0A94D2F76A2D681B9C
:100F7000D201C101062E04C0B695A7959795879515
:100F80000A94D2F75C016D01AE28BF28C02AD12A8D
:100F9000ADAABEAACFAAD8AE72016101E2960FAC8B
:100FA000E29704C0CC0CDD1CEE1CFF1C0A94D2F7A7
:100FB000C9AADAAAEBAAFCAA64015301062E04C04E
:100FC000D694C794B794A7940A94D2F7D401C301D6
:100FD000E2960FACE29704C0880F991FAA1FBB1FAF
:100FE0000A94D2F72196ECACFDAC0EAD1FAD219763
:100FF00004C016950795F794E7946A95D2F73701E0
:101000004801682A792A8A2A9B2A6DA67EA68FA67D
:1010100098AAEDA8FEA80FA918AD38018824992434
:101020009801870120703070A5960CAF1DAF2EAFD0
:101030003FAFA597C601B501A40193010E94E03519
:101040007B018C01C601B501A40193010E94E0352A
:10105000C901DA011C012D01C201B101A5962CAD17
:101060003DAD4EAD5FADA5970E94C1359B01AC0172
:101070008701FF24EE24ADA4BEA4CFA4D8A8C60146
:10108000AA27BB2757016801A82AB92ACA2ADB2A3E
:10109000A216B306C406D50600F508942108310847
:1010A00041085108EDA8FEA80FA918ADAE0CBF1C51
:1010B000C01ED11EAE14BF04C006D10670F0A21629
:1010C000B306C406D50648F408942108310841083F
:1010D0005108AE0CBF1CC01ED11EA21AB30AC40A0E
:1010E000D50AC601B501A40193010E94E0357B0138
:1010F0008C01C601B501A40193010E94E035C9012C
:10110000DA013C014D01C401B301A5962CAD3DAD02
:101110004EAD5FADA5970E94C1359B01AC01870123
:10112000FF24EE248DA59EA5AFA5B8A9A070B07030
:1011300057016801A82AB92ACA2ADB2AA216B306CF
:10114000C406D50600F50894610871088108910865
:101150006DA97EA98FA998ADA60EB71EC81ED91E6F
:10116000A616B706C806D90670F0A216B306C406BE
:10117000D50648F408946108710881089108A60E04
:10118000B71EC81ED91ED601C501821B930BA40B26
:10119000B50B89A79AA7ABA7BCA7D1019927882728
:1011A00064015301A82AB92ACA2ADB2A2596ACAEC3
:1011B000BDAECEAEDFAE2597860175012FEF3FEFB6
:1011C00040E050E0E222F32204231523A601662723
:1011D0007727AD964CAF5DAF6EAF7FAFAD97A9A847
:1011E000BAA8CBA8DCA86FEF7FEF80E090E0A62242
:1011F000B722C822D92289A99AA9ABA9BCA91D01E5
:1012000044245524C801B701A60195010E94C135A7
:10121000A9966CAF7DAF8EAF9FAFA997C801B701FC
:10122000A20191010E94C1353B014C01AD966CAD0C
:101230007DAD8EAD9FADAD97A60195010E94C135E4
:101240007B018C01AD966CAD7DAD8EAD9FADAD9744
:10125000A20191010E94C1355B016C01A8019701B7
:10126000260D371D481D591DA9966CAC7DAC8EAC62
:101270009FACA997C401AA27BB27280F391F4A1F73
:101280005B1F2E153F054007510748F4E12CF12C58
:1012900061E0062F112DAE0CBF1CC01ED11ECA016D
:1012A000AA27BB27BC01CD016A0D7B1D8C1D9D1D8E
:1012B00069A47AA48BA49CA466167706880699066E
:1012C00050F1661577058805990509F04DC0D901DB
:1012D00099278827A9962CAD3DAD4EAD5FADA99756
:1012E00040705070820F931FA41FB51F21962CAD24
:1012F0003DAD4EAD5FAD2197E2960FACE29704C0D5
:10130000220F331F441F551F0A94D2F7281739079D
:101310004A075B0748F525960CAD1DAD2EAD3FADD8
:101320002597015010402040304025960CAF1DAF4E
:101330002EAF3FAF259718C066247724430121E0E4
:1013400030E040E050E025962CAF3DAF4EAF5FAFB0
:1013500025970DC066247724430125961CAE1DAE4B
:101360001EAE1FAE259703C0662477244301FE01FD
:10137000B19688E0DF011D928A95E9F72596ACAC1D
:10138000BDACCEACDFAC2597A9A2BAA2CBA2DCA2A1
:101390006DA27EA28FA298A622962FAD22973AA187
:1013A0004BA15CA1662D7EA1DFA098A5E196ECACD7
:1013B000FDAC0EAD1FADE197E114F104010511057F
:1013C00009F456C0219581E0121608F080E03195AD
:1013D000E1E0131608F0E0E0932E981A81E0391549
:1013E00008F080E0E82B4195F1E0141608F0F0E0F9
:1013F000A42EAE1A81E04A1508F080E0F82B519532
:10140000E1E0151608F0E0E0B52EBF1A81E05B15AB
:1014100008F080E0E82B6195F1E0161608F0F0E0A6
:10142000A62FAE1B81E06A1708F080E0F82B7195BB
:10143000E1E0171608F0E0E0C72ECF1A81E07C1536
:1014400008F080E0E82B8D2D8195F1E0181608F06A
:10145000F0E0D82EDE1AE1E08D1508F0E0E0FE2B7A
:10146000892F8195392DA5016A2F7C2D982F9F1BDF
:101470008D2DCE58DF4FE2E10C941E36A7E7B0E089
:10148000E4E4FAE00C940236982E892E712E88E05E
:10149000FE013196DF01682E1D926A94E9F72983D7
:1014A0003A834B835C836D837E839F829887FE01A2
:1014B0003996DF011D928A95E9F7A986BA86CB860F
:1014C000DC86ED86FE860F87188B8D819E81AF812D
:1014D000B885B7FD07C0E1961CAE1DAE1EAE1FAEAF
:1014E000E19764C0219581E0121608F080E0319503
:1014F00091E0131608F090E0B32FB81B81E03B1782
:1015000008F080E0982B419531E0141608F030E0A7
:10151000A42FA91B81E04A1708F080E0382B5195D1
:1015200091E0151608F090E0F52FF31B81E05F17AE
:1015300008F080E0982B619531E0161608F030E055
:10154000E62FE91B81E06E1708F080E0382B7195DB
:1015500041E0171608F040E0572F531B81E0751744
:1015600008F080E0482B892D819591E0181608F04D
:1015700090E0682E641A462D31E0861508F030E0C0
:10158000932B882D8195891B2983BA83AB83FC8398
:10159000ED835E834F8388872FEF3FEF4FEF5FEF41
:1015A000E1962CAF3DAF4EAF5FAFE1978D859E8545
:1015B000AF85B889B7FF5AC0A19481E01A1408F02A
:1015C00080E0B19491E01B1408F090E06B2D681B53
:1015D00081E0B61608F080E0982BC19421E01C143D
:1015E00008F020E05C2D591B81E0C51608F080E072
:1015F000282BD19491E01D1408F090E04D2D421B52
:1016000081E0D41608F080E0982BE19421E01E14CC
:1016100008F020E03E2D391B81E0E31608F080E061
:10162000282BF19491E01F1408F090E07F2D721B9D
:10163000272F81E0F71608F080E0982B019511E044
:10164000101608F010E0802F891B982F81E00917F1
:1016500008F080E0182B872D8195811BA9866A8769
:101660005B874C873D872E879F87888B99812A814E
:101670003B814C815D816E817F81A885B9851A850A
:101680000B85FC84ED84DE84CF84B88888E0E9E1B2
:101690008E2E912C8C0E9D1EF401682E11926A9450
:1016A000E9F7998F2A8F3B8F4C8F5D8F6E8F7F8FDD
:1016B000A8A39E012F5D3F4FF90111928A95E9F78A
:1016C000B9A31AA30BA3FCA2EDA2DEA2CFA2B8A6D7
:1016D00029A03AA04BA05CA0ADA0BEA0CFA0D8A4EA
:1016E000498D5A8D6B8D7C8DE5964FAFE597E696CB
:1016F0005FAFE697E7966FAFE797E8967FAFE8971B
:10170000E8966CAC7DAC8EAC9FACE8972D966CAE39
:101710007DAE8EAE9FAE2D978D8D9E8D2F8D38A177
:101720003C01490161966CAE7DAE8EAE9FAE619775
:10173000A114B104C104D10409F028C362147304D4
:101740008404950408F00EC100E0201600E0300685
:1017500001E0400600E0500688F41FEF2116310436
:101760004104510439F030F088E0E82EF12C012DCD
:10177000112D18C0EE24FF24870114C020E022168A
:1017800020E0320620E0420621E0520630F0B8E1C7
:10179000EB2EF12C012D112D05C0A0E1EA2EF12C2C
:1017A000012D112DD201C1010E2C04C0B695A795B3
:1017B000979587950A94D2F786569F4FDC012C9116
:1017C00080E290E0A0E0B0E08E199F09A00BB10B81
:1017D0005C016D01A21AB108C108D1086596ACAED2
:1017E000BDAECEAEDFAE6597A114B104C104D10485
:1017F00009F445C062966FAD6297062E04C0220CB4
:10180000331C441C551C0A94D2F7A4019301062EE4
:1018100004C0220F331F441F551F0A94D2F780E2E1
:1018200090E08A199B09E896CCACDDACEEACFFAC3D
:10183000E89704C0F694E794D794C7948A95D2F7B2
:1018400087017601E22AF32A042B152B6196ECAE70
:10185000FDAE0EAF1FAF6197E8960CAD1DAD2EAD7E
:101860003FADE89704C0000F111F221F331F6A9578
:10187000D2F72D960CAF1DAF2EAF3FAF2D97320193
:1018800088249924A20191014070507069962CAF70
:101890003DAF4EAF5FAF699761966CAD7DAD8EADDC
:1018A0009FAD6197A40193010E94E0357B018C01FB
:1018B00061966CAD7DAD8EAD9FAD6197A401930136
:1018C0000E94E035CA01B90169962CAD3DAD4EAD1F
:1018D0005FAD69970E94C1359B01AC018701FF2470
:1018E000EE242D96ACACBDACCEACDFAC2D97C601D2
:1018F000AA27BB2757016801A82AB92ACA2ADB2AC6
:10190000A216B306C406D50690F4A20CB31CC41CE0
:10191000D51CA214B304C404D50448F0A216B3061F
:10192000C406D50620F4A20CB31CC41CD51CA21AF4
:10193000B30AC40AD50AC601B501A40193010E94E5
:10194000E0357B018C01C601B501A40193010E9421
:10195000E035CA01B90169962CAD3DAD4EAD5FAD24
:101960006997C8C1211431044104510471F461E044
:1019700070E080E090E020E030E040E050E00E9445
:10198000E035C901DA011C012D0100E0201600E05C
:10199000300601E0400600E0500688F41FEF2116F3
:1019A00031044104510439F030F068E0E62EF12CA6
:1019B000012D112D18C0EE24FF24870114C020E052
:1019C000221620E0320620E0420621E0520630F0E6
:1019D00058E1E52EF12C012D112D05C040E1E42E3A
:1019E000F12C012D112DD201C1010E2C04C0B69590
:1019F000A795979587950A94D2F786569F4FDC0155
:101A00002C9130E2A32EB12CC12CD12CD601C501D2
:101A10008E199F09A00BB10B7C018D01E21AF10810
:101A2000010911096596ECAEFDAE0EAF1FAF6597CB
:101A3000E114F1040105110539F464015301A21800
:101A4000B308C408D508ECC06296FFAC6297E49670
:101A5000FFAEE4970F2C04C0220C331C441C551C11
:101A60000A94D2F78A2D8F1964015301082E04C0FD
:101A7000D694C794B794A7940A94D2F7A40193017B
:101A800004C0220F331F441F551FFA94D2F7E89663
:101A90006CAC7DAC8EAC9FACE89704C096948794F8
:101AA000779467948A95D2F784017301E22AF32A26
:101AB000042B152B2996ECAEFDAE0EAF1FAF299768
:101AC00032018824992492018101207030706D9632
:101AD0000CAF1DAF2EAF3FAF6D97C601B501A4018E
:101AE00093010E94E0357B018C01C601B501A40180
:101AF00093010E94E035CA01B9016D962CAD3DAD50
:101B00004EAD5FAD6D970E94C1359B01AC01870161
:101B1000FF24EE242996ACACBDACCEACDFAC29974B
:101B2000C601AA27BB275C016D01AE28BF28C02AC9
:101B3000D12AA216B306C406D50690F4A20CB31C93
:101B4000C41CD51CA214B304C404D50448F0A216C6
:101B5000B306C406D50620F4A20CB31CC41CD51CC5
:101B6000A21AB30AC40AD50AC601B501A401930199
:101B70000E94E0357B018C01C601B501A4019301EF
:101B80000E94E035CA01B9016D962CAD3DAD4EAD58
:101B90005FAD6D970E94C1359B01AC018701FF24A9
:101BA000EE2429968CAD9DADAEADBFAD2997A0704A
:101BB000B07057016801A82AB92ACA2ADB2AA216DE
:101BC000B306C406D50690F4A20CB31CC41CD51CE5
:101BD000A214B304C404D50448F0A216B306C40684
:101BE000D50620F4A20CB31CC41CD51CE896ECACA2
:101BF000FDAC0EAD1FADE897E4960FACE49704C0C2
:101C0000EE0CFF1C001F111F0A94D2F72D96ECAEAC
:101C1000FDAE0EAF1FAF2D97A21AB30AC40AD50AA4
:101C20003201882499249201810120703070A1969C
:101C30000CAF1DAF2EAF3FAFA197C601B501A401F8
:101C400093010E94E0357B018C01C601B501A4011E
:101C500093010E94E035CA01B901A1962CAD3DADBA
:101C60004EAD5FADA1970E94C1359B01AC018701CC
:101C7000FF24EE242D96ACACBDACCEACDFAC2D97E2
:101C8000C601AA27BB2757016801A82AB92ACA2A70
:101C9000DB2AA216B306C406D50690F4A20CB31C28
:101CA000C41CD51CA214B304C404D50448F0A21665
:101CB000B306C406D50620F4A20CB31CC41CD51C64
:101CC000A21AB30AC40AD50AC601B501A401930138
:101CD0000E94E0357B018C01C601B501A40193018E
:101CE0000E94E035CA01B901A1962CAD3DAD4EADC3
:101CF0005FADA1970E94C1359B01AC018701FF2414
:101D0000EE242D968CAD9DADAEADBFAD2D97A070E0
:101D1000B070E82AF92A0A2B1B2BE216F3060407F7
:101D2000150790F4E20CF31C041D151DE214F304D6
:101D30000405150548F0E216F3060407150720F41C
:101D4000E20CF31C041D151DE21AF30A040B150B1B
:101D5000D801C70162960FAC629704C0B695A795EB
:101D6000979587950A94D2F789A79AA7ABA7BCA79E
:101D70001DA61EA61FA618AA898B8AA58A8B8BA5CD
:101D80008B8B8CA58C8B8DA58D8B2FC36A147B04BC
:101D90008C049D0448F4498B5A8B6B8B7C8B8D8B08
:101DA0009E8B2F8B388F27C300E0A01600E0B00673
:101DB00001E0C00600E0D00688F41FEFA116B104D0
:101DC000C104D10439F030F028E0E22EF12C012DCD
:101DD000112D18C0EE24FF24870114C020E0A216A4
:101DE00020E0B20620E0C20621E0D20630F098E101
:101DF000E92EF12C012D112D05C080E1E82EF12CEA
:101E0000012D112DD601C5010E2C04C0B695A79544
:101E1000979587950A94D2F786569F4FDC012C91AF
:101E200080E290E0A0E0B0E08E199F09A00BB10B1A
:101E3000821B9109A109B1090097A105B10509F01B
:101E400059C0A614B704C804D90470F0E896ECACE5
:101E5000FDAC0EAD1FADE897E214F30404051505C3
:101E600018F4D801C7012FC0E8968CAD9DADAEAD7A
:101E7000BFADE89782199309A409B509A40193019C
:101E80002A193B094C095D09AA24BB246501E8967F
:101E90006CAC7DAC8EAC9FACE897681679068A0670
:101EA0009B0628F411E0A12EB12CC12CD12C790174
:101EB0008A01EA18FB080C091D096196ECAEFDAE1B
:101EC0000EAF1FAF619789A79AA7ABA7BCA7619672
:101ED0000CAD1DAD2EAD3FAD61970DA71EA72FA771
:101EE00038AB898B8AA58A8B8BA58B8B8CA58C8B29
:101EF0000D8B7BC2E3968FAFE397A6019501082E69
:101F000004C0220F331F441F551F0A94D2F710E25A
:101F1000181BE2961FAFE297D201C101012E04C047
:101F2000B695A795979587950A94D2F75C016D01B0
:101F3000A22AB32AC42AD52A2596ACAEBDAECEAE0F
:101F4000DFAE259772016101E3960FACE39704C001
:101F5000CC0CDD1CEE1CFF1C0A94D2F72196CCAEF3
:101F6000DDAEEEAEFFAE219764015301012E04C039
:101F7000D694C794B794A7940A94D2F7A401930176
:101F8000E3960FACE39704C0220F331F441F551F85
:101F90000A94D2F7E8968CAD9DADAEADBFADE89793
:101FA00004C0B695A795979587951A95D2F77C01A9
:101FB0008D01E22AF32A042B152BE9AEFAAE0BAF02
:101FC0001CAFE8960CAD1DAD2EAD3FADE897E39686
:101FD0000FACE39704C0000F111F221F331F0A9498
:101FE000D2F70DAB1EAB2FAB38AF25962CAD3DAD68
:101FF0004EAD5FAD25973A0188249924407050700A
:10200000A5962CAF3DAF4EAF5FAFA597C601B5010A
:10201000A40193010E94E0357B018C01C601B5014A
:10202000A40193010E94E035C901DA011C012D01D0
:10203000C201B101A5962CAD3DAD4EAD5FADA597EA
:102040000E94C1359B01AC018701FF24EE24A9AC9D
:10205000BAACCBACDCACC601AA27BB2757016801E0
:10206000A82AB92ACA2ADB2AA216B306C406D506AC
:1020700010F5089421083108410851082596ECAC68
:10208000FDAC0EAD1FAD2597AE0CBF1CC01ED11E02
:10209000AE14BF04C006D10670F0A216B306C40683
:1020A000D50648F408942108310841085108AE0CBF
:1020B000BF1CC01ED11EA21AB30AC40AD50AC6018B
:1020C000B501A40193010E94E0357B018C01C6019A
:1020D000B501A40193010E94E035C901DA013C0178
:1020E0004D01C401B301A5962CAD3DAD4EAD5FAD24
:1020F000A5970E94C1359B01AC018701FF24EE2406
:1021000089AD9AADABADBCADA070B07057016801A0
:10211000A82AB92ACA2ADB2AA216B306C406D506FB
:1021200010F50894610871088108910825966CAD36
:102130007DAD8EAD9FAD2597A60EB71EC81ED91ECC
:10214000A616B706C806D90670F0A216B306C406CE
:10215000D50648F408946108710881089108A60E14
:10216000B71EC81ED91ED601C501821B930BA40B36
:10217000B50B89AB9AABABABBCABD1019927882728
:1021800084017301E82AF92A0A2B1B2B8FEFA82E52
:102190008FEFB82EC12CD12CAE20BF20C022D1226F
:1021A00078010027112721966CAC7DAC8EAC9FACDA
:1021B00021972FEF3FEF40E050E06222732284220C
:1021C000952221966CAD7DAD8EAD9FAD2197AC0172
:1021D00066277727AD964CAF5DAF6EAF7FAFAD97FB
:1021E000C601B501A40193010E94C135A9966CAF47
:1021F0007DAF8EAF9FAFA997C601B501AD962CAD4F
:102200003DAD4EAD5FADAD970E94C1351B012C01B8
:10221000C801B701A40193010E94C1355B016C01A3
:10222000C801B701AD962CAD3DAD4EAD5FADAD97DC
:102230000E94C1357B018C01A6019501220D331D41
:10224000441D551DA9966CAC7DAC8EAC9FACA99776
:10225000C401AA27BB27280F391F4A1F5B1F2A1555
:102260003B054C055D0548F4812C912CE1E0AE2E38
:10227000B12CE80CF91C0A1D1B1DCA01AA27BB279B
:1022800057016801A80EB91ECA1EDB1EA90133271B
:102290002227A9968CAD9DADAEADBFADA997A0701C
:1022A000B070280F391F4A1F5B1FE9A8FAA80BA9B5
:1022B0001CA9EA14FB040C051D0570F0AE14BF0444
:1022C000C006D10689F56DA97EA98FA998AD6217C0
:1022D00073078407950740F5DA01C90121966CACB4
:1022E0007DAC8EAC9FAC219786199709A809B909D6
:1022F0002596ECACFDAC0EAD1FAD2597AE18BF0812
:10230000C00AD10AEE24FF248701281739074A079B
:102310005B0728F421E0E22EF12C012D112DAE18DF
:10232000BF08C00AD10A02C0DA01C9016DA87EA89F
:102330008FA898AC681A790A8A0A9B0A09A91AA96F
:102340002BA93CA90A191B092C093D09580169014F
:102350002224332421012DA93EA94FA958AD2615C9
:1023600037054805590528F481E0282E312C412CE9
:10237000512C86017501E218F30804091509A8011A
:102380009701E2960FACE29704C0220F331F441F5F
:10239000551F0A94D2F7D401C301E3960FACE3971B
:1023A00004C0B695A795979587950A94D2F7282BE0
:1023B000392B4A2B5B2B29A73AA74BA75CA7E3969F
:1023C0000FACE39704C016950795F794E7940A9429
:1023D000D2F7EDA6FEA60FA718AB298B8AA58A8B8C
:1023E0008BA58B8B8CA58C8BED8A8EA58E8B8FA568
:1023F0008F8B88A9888FE1964CAD5DAD6EAD7FADBA
:10240000E197411551056105710509F467C0898996
:102410002A893B894C895D89AE89BF89188DF82F3F
:10242000F19591E01F1608F090E0822F819521E050
:10243000181608F020E0E82FE91B91E08E1708F04D
:1024400090E0292B832F819531E0181608F030E0B9
:10245000782F721B91E0871708F090E0392B842FBA
:10246000819521E0181608F020E0682F631B91E0A9
:10247000861708F090E0292B852F819531E01816FA
:1024800008F030E0582F521B91E0851708F090E0DB
:10249000392B8A2F819521E0181608F020E0482F6B
:1024A000431B91E0841708F090E0292B8B2F819536
:1024B00091E0181608F090E0382F321B21E08317C6
:1024C00008F020E0922B812F8195891BF98BEA8BF4
:1024D0007B8B6C8B5D8B4E8B3F8B888F29893A89E8
:1024E0004B895C896D897E898F89988DC958DF4FAA
:1024F000E2E10C941E36A0E0B0E0E1E8F2E10C94D9
:102500000236DC012B01FA019C91923008F439C1AA
:10251000EB018881823008F433C1943069F484304F
:1025200009F02FC111969C9111978981981709F490
:1025300028C1A2E9B0E025C1843009F421C182306C
:10254000A9F4923009F01DC19A01AD0188E0EA01B9
:102550000990AE01E90109929E018150C1F7E201A3
:10256000898111969C918923818308C1923009F455
:1025700007C112962D903C901397EB018A819B81A5
:102580001496AD90BD90CD90DC901797EC80FD80B7
:102590000E811F819101281B390BB90137FF04C03F
:1025A00066277727621B730B603271050CF061C0E0
:1025B000121613066CF537014801062E04C09694D6
:1025C0008794779467940A94D2F721E030E040E052
:1025D00050E004C0220F331F441F551F6A95D2F7E5
:1025E00021503040404050402E213F214023512374
:1025F000211531054105510521F021E030E040E091
:1026000050E079018A01E628F728082919293CC0F9
:10261000232BD1F1260E371E35014601062E04C0AC
:1026200096948794779467940A94D2F721E030E0E7
:1026300040E050E004C0220F331F441F551F6A952D
:10264000D2F721503040404050402A213B214C21BC
:102650005D21211531054105510521F021E030E0D2
:1026600040E050E059016A01A628B728C828D928B7
:102670000BC0821593052CF01C01AA24BB24650114
:1026800003C0EE24FF24870111969C91D20111967C
:102690008C91981709F445C0992339F0A801970146
:1026A0002A193B094C095D0906C0A60195012E199E
:1026B0003F09400B510B57FD08C011823382228223
:1026C00024833583468357831DC081E08183338211
:1026D000228288279927DC01821B930BA40BB50B60
:1026E00084839583A683B7830DC0220F331F441FB5
:1026F000551F2483358346835783828193810197B5
:10270000938382832481358146815781DA01C9010F
:102710000197A109B1098F5F9F4FAF4FBF4328F3C6
:102720000BC0918333822282EA0CFB1C0C1D1D1D01
:10273000E482F5820683178383E0808324813581D8
:102740004681578157FF1AC0C901AA2797FDA09556
:10275000BA2F81709070A070B070569547953795DC
:102760002795822B932BA42BB52B84839583A6834B
:10277000B78382819381019693838283DF0101C0B5
:10278000D201CD01CDB7DEB7E2E10C941E36A0E256
:10279000B0E0EDECF3E10C940E3669837A838B8321
:1027A0009C832D833E834F835887E9E0EE2EF12CE6
:1027B000EC0EFD1ECE010196B7010E94CB188E01D2
:1027C0000F5E1F4FCE010596B8010E94CB188A8973
:1027D00091E089278A8BC701B801AE01475E5F4F40
:1027E0000E947B120E94F617A096E6E00C942A360F
:1027F000A0E2B0E0EEEFF3E10C940E3669837A8349
:102800008B839C832D833E834F835887F9E0EF2E83
:10281000F12CEC0EFD1ECE010196B7010E94CB18E3
:102820008E010F5E1F4FCE010596B8010E94CB1896
:10283000C701B801AE01475E5F4F0E947B120E9444
:10284000F617A096E6E00C942A36A0E2B0E0EBE2A0
:10285000F4E10C94023669837A838B839C832D8305
:102860003E834F835887CE010196BE01675F7F4F3D
:102870000E94CB18CE010596BE016F5E7F4F0E946D
:10288000CB189985923088F089898230C8F09430CD
:1028900019F4823051F404C0843029F4923081F468
:1028A00082E990E0C6C0923049F420E09A858A8996
:1028B000981321E02A87CE010996BBC0823049F4E3
:1028C00020E09A858A89981321E02A8BCE014196CF
:1028D000B0C02D843E844F8458886D887E888F8850
:1028E000988CEE24FF248701AA24BB24650140E0D4
:1028F00050E060E070E0E0E0F0E0C10181709070D5
:10290000892BE9F0E60CF71C081D191D9A01AB0193
:102910002A0D3B1D4C1D5D1D80E090E0A0E0B0E065
:10292000E614F7040805190520F481E090E0A0E022
:10293000B0E0BA01A901480F591F6A1F7B1FAA0CFA
:10294000BB1CCC1CDD1C97FE08C081E090E0A0E021
:10295000B0E0A82AB92ACA2ADB2A3196E032F1056A
:1029600049F0660C771C881C991C56944794379440
:102970002794C3CFFA85EA892B893C898B859C856E
:10298000280F391F2E5F3F4F17C0CA01817090700A
:10299000892B61F016950795F794E79480E090E015
:1029A000A0E0B0E8E82AF92A0A2B1B2B7695679558
:1029B000579547952F5F3F4F77FDE7CF0CC0440FEA
:1029C000551F661F771F17FD4160EE0CFF1C001F8F
:1029D000111F21503040403090E0590790E06907C6
:1029E00090E4790760F32B8F3C8FDB01CA018F776E
:1029F0009070A070B07080349105A105B10561F4AC
:102A000047FD0AC0E114F1040105110529F0405CFD
:102A10005F4F6F4F7F4F40781A8EFE1711F081E0A5
:102A20008A8F4D8F5E8F6F8F78A383E0898FCE0161
:102A300049960E94F617A096E2E10C941E36A8E192
:102A4000B0E0E5E2F5E10C940A3669837A838B8382
:102A50009C832D833E834F835887B9E0EB2EF12C66
:102A6000EC0EFD1ECE010196B7010E94CB188E011F
:102A70000F5E1F4FCE010596B8010E94CB18298525
:102A8000223008F47EC03989323010F4B8017CC09D
:102A90008A859A8989278A87243011F0223031F477
:102AA000231709F06EC062E970E06EC0343039F46B
:102AB0001D861E861F86188A1C861B8604C032301F
:102AC00021F484E08987B7015FC02B853C858B8921
:102AD0009C89281B390B3C872B87ED84FE840F854E
:102AE0001889AD88BE88CF88D88CEA14FB040C0501
:102AF0001D0540F4EE0CFF1C001F111F215030403B
:102B00003C872B8720E030E040E050E080E090E020
:102B1000A0E0B0E460E070E0EA14FB040C051D05E1
:102B200040F0282B392B4A2B5B2BEA18FB080C09A9
:102B30001D09B695A79597958795EE0CFF1C001F6C
:102B4000111F6F5F7F4F6F31710531F7DA01C901D6
:102B50008F779070A070B07080349105A105B10599
:102B600061F427FD0AC0E114F1040105110529F003
:102B7000205C3F4F4F4F5F4F20782D873E874F8718
:102B8000588BBE01675F7F4FCB010E94F617689696
:102B9000EAE00C942636A8E1B0E0E1EDF5E10C9412
:102BA0000E3669837A838B839C832D833E834F8388
:102BB000588789E0E82EF12CEC0EFD1ECE0101961F
:102BC000B7010E94CB188E010F5E1F4FCE010596F4
:102BD000B8010E94CB188985823040F08989823003
:102BE00028F0C701B8010E94431901C08FEF689611
:102BF000E6E00C942A36A8E1B0E0E1E0F6E10C94BE
:102C00000E3669837A838B839C832D833E834F8327
:102C1000588789E0E82EF12CEC0EFD1ECE010196BE
:102C2000B7010E94CB188E010F5E1F4FCE01059693
:102C3000B8010E94CB188985823040F089898230A2
:102C400028F0C701B8010E94431901C08FEF6896B0
:102C5000E6E00C942A36A8E1B0E0E1E3F6E10C945A
:102C60000E3669837A838B839C832D833E834F83C7
:102C7000588789E0E82EF12CEC0EFD1ECE0101965E
:102C8000B7010E94CB188E010F5E1F4FCE01059633
:102C9000B8010E94CB188985823040F08989823042
:102CA00028F0C701B8010E94431901C081E068966D
:102CB000E6E00C942A36ACE0B0E0E1E6F6E10C94F4
:102CC000123669837A838B839C83CE010196BE0181
:102CD0006B5F7F4F0E94CB188D81823061F1823013
:102CE00050F1843021F48E81882351F12EC02F8140
:102CF000388537FD20C06E812F3131051CF06623E9
:102D0000F9F023C08EE190E0821B930B29853A8570
:102D10004B855C8504C056954795379527958A95D0
:102D2000D2F76623B1F050954095309521953F4FED
:102D30004F4F5F4F0EC020E030E040E050E009C050
:102D40002FEF3FEF4FEF5FE704C020E030E040E0BF
:102D500050E8B901CA012C96E2E00C942E36A8E0A6
:102D6000B0E0E5EBF6E10C940A367B018C016115CD
:102D700071058105910519F482E0898360C083E0C3
:102D800089838EE1C82ED12CDC82CB82ED82FE823B
:102D90000F831887C801B7010E94A717FC0131975C
:102DA000F7FF3BC0222733272E1B3F0B570168013B
:102DB000022E04C0D694C794B794A7940A94D2F76D
:102DC00040E050E060E070E081E090E0A0E0B0E042
:102DD00004C0880F991FAA1FBB1F2A95D2F701971D
:102DE000A109B1098E219F21A023B1230097A1053C
:102DF000B10521F041E050E060E070E04A295B2934
:102E00006C297D294D835E836F8378878EE190E006
:102E10008E1B9F0B9C838B8312C0309781F00E2EEC
:102E200004C0EE0CFF1C001F111F0A94D2F7ED82A4
:102E3000FE820F831887CE1ADF0ADC82CB821A82C9
:102E4000CE0101960E94F6172896EAE00C942636E9
:102E5000EF92FF920F93DF93CF93CDB7DEB76097DA
:102E60000FB6F894DEBF0FBECDBFA82F002309F424
:102E700061C07E010894E11CF11C88E0F701119209
:102E80008A95E9F729833A834B835C836D837E833C
:102E9000AF83988780E2801BE82FFF27E7FDF0953E
:102EA00049815A816B817C81181684F019861A86B3
:102EB0001B861C86882799278E1B9F0B04C0440FF6
:102EC000551F661F771F8A95D2F728C0202F3327FA
:102ED00027FD3095DB01CA01022E04C0880F991F1F
:102EE000AA1FBB1F0A94D2F789879A87AB87BC8732
:102EF00004C07695679557954795EA95D2F78D81E9
:102F00009E81AF81B88504C0880F991FAA1FBB1F7F
:102F10002A95D2F7482B592B6A2B7B2B4D875E873E
:102F20006F87788B29853A854B855C856D857E8595
:102F3000AF8598898A2F60960FB6F894DEBF0FBED2
:102F4000CDBFCF91DF910F91FF90EF900895EF9259
:102F5000FF920F931F937B018C0180E0E81680E0C5
:102F6000F80681E0080780E0180788F48FEFE8167C
:102F7000F1040105110531F028F088E090E0A0E0AF
:102F8000B0E017C080E090E0A0E0B0E012C080E0C8
:102F9000E81680E0F80680E0080781E0180728F0CE
:102FA00088E190E0A0E0B0E004C080E190E0A0E023
:102FB000B0E020E230E040E050E0281B390B4A0B43
:102FC0005B0B04C016950795F794E7948A95D2F7A2
:102FD000F701E656FF4F8081281B3109410951094D
:102FE000C9011F910F91FF90EF900895DF92EF922A
:102FF000FF920F931F93FC01E480F58006811781F7
:10300000D1808081823048F480E090E0A0E1B0E09F
:10301000E82AF92A0A2B1B2BA5C0843009F49FC08B
:10302000823021F4EE24FF24870105C0E114F1046D
:103030000105110519F4E0E0F0E096C062817381AA
:103040009FEF623879070CF05BC022E83FEF261B48
:10305000370B2A3131052CF020E030E040E050E021
:103060002AC0B801A701022E04C07695679557952E
:1030700047950A94D2F781E090E0A0E0B0E004C068
:10308000880F991FAA1FBB1F2A95D2F70197A10984
:10309000B1098E219F21A023B1230097A105B1057D
:1030A00021F081E090E0A0E0B0E09A01AB01282B94
:1030B000392B4A2B5B2BDA01C9018F779070A070F6
:1030C000B07080349105A105B10539F427FF09C01E
:1030D000205C3F4F4F4F5F4F04C0215C3F4F4F4F2D
:1030E0005F4FE0E0F0E02030A0E03A07A0E04A07C0
:1030F000A0E45A0710F0E1E0F0E079018A0127C06E
:103100006038710564F5FB01E158FF4FD801C70134
:103110008F779070A070B07080349105A105B105D3
:1031200039F4E7FE0DC080E490E0A0E0B0E004C018
:103130008FE390E0A0E0B0E0E80EF91E0A1F1B1F2D
:1031400017FF05C016950795F794E794319687E029
:1031500016950795F794E7948A95D1F705C0EE2464
:10316000FF248701EFEFF0E06E2F679566276795E4
:10317000902F9F77D794DD24D7948E2F8695492F53
:10318000462B582F5D29B701CA011F910F91FF905F
:10319000EF90DF900895FC01DB0140815181228195
:1031A000622F6F7770E0221F2227221F9381892FC1
:1031B000880F822B282F30E0991F9927991F11968D
:1031C0009C93119721153105A9F54115510561050C
:1031D000710511F482E037C082E89FEF13969C934B
:1031E0008E9312979A01AB0167E0220F331F441FA1
:1031F000551F6A95D1F783E08C930DC0220F331FC2
:10320000441F551F12968D919C9113970197139609
:103210009C938E931297203080E0380780E0480717
:1032200080E4580758F314962D933D934D935C9387
:10323000179708952F3F310579F441155105610520
:10324000710519F484E08C93089564FF03C081E054
:103250008C9312C01C9210C02F57304013963C9391
:103260002E93129783E08C9387E0440F551F661FBF
:10327000771F8A95D1F7706414964D935D936D9383
:103280007C93179708951F93DC01FB019C9192306A
:1032900008F447C08081823008F443C0943051F470
:1032A00011961C91843099F58181682F70E0611B23
:1032B00071093FC0843021F0923031F48230B9F18D
:1032C0008181882389F12DC011961C91119782303C
:1032D000F1F081811817D9F412962D913C91139732
:1032E000828193818217930794F028173907BCF0E5
:1032F00014968D919D910D90BC91A02D24813581C6
:1033000046815781281739074A075B0718F41123AC
:1033100041F00AC082179307A407B50740F41123B0
:1033200019F061E070E005C06FEF7FEF02C060E070
:1033300070E0CB011F910895DF93CF93CDB7DEB737
:10334000A7E2B0E0E7E2F0E0808180628C93A6E241
:10335000B0E0E6E2F0E080818F7D8C93CF91DF9149
:103360000895DF93CF930F92CDB7DEB7898389811C
:103370008230A9F4A6E2B0E0E6E2F0E080818B7F43
:103380008C93A6E2B0E0E6E2F0E080818D7F8C9342
:10339000A6E2B0E0E6E2F0E0808181608C93898172
:1033A0008430A9F4A6E2B0E0E6E2F0E080818B7F11
:1033B0008C93A6E2B0E0E6E2F0E0808182608C933C
:1033C000A6E2B0E0E6E2F0E080818E7F8C93898116
:1033D0008830A9F4A6E2B0E0E6E2F0E080818B7FDD
:1033E0008C93A6E2B0E0E6E2F0E0808182608C930C
:1033F000A6E2B0E0E6E2F0E0808181608C93898112
:103400008031A9F4A6E2B0E0E6E2F0E080818460D9
:103410008C93A6E2B0E0E6E2F0E080818D7F8C93B1
:10342000A6E2B0E0E6E2F0E080818E7F8C938981B5
:103430008032A9F4A6E2B0E0E6E2F0E080818460A8
:103440008C93A6E2B0E0E6E2F0E080818D7F8C9381
:10345000A6E2B0E0E6E2F0E0808181608C938981B1
:103460008034A9F4A6E2B0E0E6E2F0E08081846076
:103470008C93A6E2B0E0E6E2F0E0808182608C937B
:10348000A6E2B0E0E6E2F0E080818E7F8C93898155
:103490008038A9F4A6E2B0E0E6E2F0E08081846042
:1034A0008C93A6E2B0E0E6E2F0E0808182608C934B
:1034B000A6E2B0E0E6E2F0E0808181608C930F90BC
:1034C000CF91DF910895DF93CF930F92CDB7DEB701
:1034D00089838981882371F4A7E2B0E0E7E2F0E014
:1034E00080818F778C93A7E2B0E0E7E2F0E0808103
:1034F0008F7B8C938981813071F4A7E2B0E0E7E2A1
:10350000F0E080818F778C93A7E2B0E0E7E2F0E013
:10351000808180648C938981833071F4A7E2B0E06C
:10352000E7E2F0E0808180688C93A7E2B0E0E7E218
:10353000F0E0808180648C930F90CF91DF910895AB
:10354000DF93CF930F92CDB7DEB78983898188232C
:1035500019F5A7E2B0E0E7E2F0E080818F7E8C937E
:10356000A7E2B0E0E7E2F0E08081877F8C93A7E2FA
:10357000B0E0E7E2F0E080818B7F8C93A7E2B0E0DF
:10358000E7E2F0E080818D7F8C93A7E2B0E0E7E294
:10359000F0E080818E7F8C938981813019F5A7E2DC
:1035A000B0E0E7E2F0E080818F7E8C93A7E2B0E0AC
:1035B000E7E2F0E08081877F8C93A7E2B0E0E7E26A
:1035C000F0E080818B7F8C93A7E2B0E0E7E2F0E04F
:1035D00080818D7F8C93A7E2B0E0E7E2F0E080810C
:1035E00081608C938981823019F5A7E2B0E0E7E22F
:1035F000F0E080818F7E8C93A7E2B0E0E7E2F0E01C
:103600008081877F8C93A7E2B0E0E7E2F0E08081E1
:103610008B7F8C93A7E2B0E0E7E2F0E080818260EC
:103620008C93A7E2B0E0E7E2F0E080818E7F8C939C
:103630008981833019F5A7E2B0E0E7E2F0E080810C
:103640008F7E8C93A7E2B0E0E7E2F0E08081877F95
:103650008C93A7E2B0E0E7E2F0E080818B7F8C936F
:10366000A7E2B0E0E7E2F0E0808182608C93A7E21D
:10367000B0E0E7E2F0E0808181608C938981843062
:1036800019F5A7E2B0E0E7E2F0E080818F7E8C934D
:10369000A7E2B0E0E7E2F0E08081877F8C93A7E2C9
:1036A000B0E0E7E2F0E0808184608C93A7E2B0E0D4
:1036B000E7E2F0E080818D7F8C93A7E2B0E0E7E263
:1036C000F0E080818E7F8C938981853019F5A7E2A7
:1036D000B0E0E7E2F0E080818F7E8C93A7E2B0E07B
:1036E000E7E2F0E08081877F8C93A7E2B0E0E7E239
:1036F000F0E0808184608C93A7E2B0E0E7E2F0E044
:1037000080818D7F8C93A7E2B0E0E7E2F0E08081DA
:1037100081608C938981863019F5A7E2B0E0E7E2F9
:10372000F0E080818F7E8C93A7E2B0E0E7E2F0E0EA
:103730008081877F8C93A7E2B0E0E7E2F0E08081B0
:1037400084608C93A7E2B0E0E7E2F0E080818260E1
:103750008C93A7E2B0E0E7E2F0E080818E7F8C936B
:103760008981873019F5A7E2B0E0E7E2F0E08081D7
:103770008F7E8C93A7E2B0E0E7E2F0E08081877F64
:103780008C93A7E2B0E0E7E2F0E0808184608C9364
:10379000A7E2B0E0E7E2F0E0808182608C93A7E2EC
:1037A000B0E0E7E2F0E0808181608C930F90CF91F0
:1037B000DF910895DF93CF93CDB7DEB7A6E2B0E0F7
:1037C000E6E2F0E0808180688C93CF91DF910895EC
:1037D000DF93CF93CDB7DEB7A6E2B0E0E6E2F0E04C
:1037E00080818F778C93CF91DF910895DF93CF9372
:1037F000CDB7DEB7A6E2B0E0E6E2F0E0808180641B
:103800008C93CF91DF910895DF93CF930F92CDB733
:10381000DEB71982E6E2F0E0808182958F708170D8
:1038200089838981813041F4A6E2B0E0E6E2F0E0EC
:10383000808180618C93198289810F90CF91DF9173
:103840000895DF93CF93CDB7DEB7E5E2F0E0808156
:10385000882F90E09093AD018093AC018091AC01F2
:103860009091AD01880F991F880F991F9093AD011A
:103870008093AC018091AC019091AD01CF91DF912B
:103880000895DF93CF93CDB7DEB7A6E2B0E0E6E2CE
:10389000F0E0808188608C93CF91DF910895DF9371
:1038A000CF93CDB7DEB7A6E2B0E0E6E2F0E08081EC
:1038B000877F8C93CF91DF910895DF93CF93CDB71E
:1038C000DEB7A6E2B0E0E6E2F0E0808180618C93B2
:1038D000CF91DF910895DF93CF9300D0CDB7DEB7BE
:1038E0009A83898389819A819093AF018093AE01F5
:1038F0000F900F90CF91DF9108951F920F920FB606
:103900000F9211242F933F934F935F936F937F9365
:103910008F939F93AF93BF93EF93FF93DF93CF93D7
:10392000CDB7DEB78091AE019091AF01009729F03D
:10393000E091AE01F091AF010995CF91DF91FF9138
:10394000EF91BF91AF919F918F917F916F915F9117
:103950004F913F912F910F900FBE0F901F90189590
:10396000DF93CF9300D000D000D0CDB7DEB78983EE
:103970006A838A81813099F58981282F30E03E83DE
:103980002D838D819E8181309105D1F02D813E81E5
:10399000223031052CF48D819E81009761F050C05A
:1039A0002D813E812230310581F08D819E818330D1
:1039B000910581F045C0EAE3F0E08FEF808340C0DD
:1039C000E7E3F0E08FEF80833BC0E4E3F0E08FEFCC
:1039D000808336C0E1E3F0E08FEF808331C08A81DD
:1039E000882371F58981282F30E03C832B838B81DC
:1039F0009C8181309105C9F02B813C8122303105B9
:103A00002CF48B819C81009761F01AC02B813C8142
:103A10002230310571F08B819C818330910569F0F2
:103A20000FC0EAE3F0E010820BC0E7E3F0E01082A1
:103A300007C0E4E3F0E0108203C0E1E3F0E01082AD
:103A400026960FB6F894DEBF0FBECDBFCF91DF91A3
:103A50000895DF93CF9300D000D0CDB7DEB7898330
:103A60006A838981282F30E03C832B838B819C8162
:103A700081309105D1F02B813C81223031052CF42D
:103A80008B819C81009761F01EC02B813C8122308C
:103A9000310581F08B819C818330910581F013C0C9
:103AA000EBE3F0E08A8180830EC0E8E3F0E08A81F6
:103AB000808309C0E5E3F0E08A81808304C0E2E30B
:103AC000F0E08A8180830F900F900F900F90CF913C
:103AD000DF910895DF93CF93CDB7DEB727970FB669
:103AE000F894DEBF0FBECDBF89836A834B838B8181
:103AF000813009F06FC08981282F30E03F832E8309
:103B00008E819F818130910549F12E813F81223044
:103B100031052CF48E819F81009761F0D2C02E81F7
:103B20003F812230310571F18E819F818330910573
:103B3000E9F1C7C0AAE3B0E0EAE3F0E08081482FF2
:103B40008A81282F30E081E090E0022E02C0880FA9
:103B5000991F0A94E2F7842B8C93B3C0A7E3B0E0DB
:103B6000E7E3F0E08081482F8A81282F30E081E070
:103B700090E0022E02C0880F991F0A94E2F7842B6E
:103B80008C939FC0A4E3B0E0E4E3F0E08081482F91
:103B90008A81282F30E081E090E0022E02C0880F59
:103BA000991F0A94E2F7842B8C938BC0A1E3B0E0B9
:103BB000E1E3F0E08081482F8A81282F30E081E026
:103BC00090E0022E02C0880F991F0A94E2F7842B1E
:103BD0008C9377C08B81882309F073C08981282F4B
:103BE00030E03D832C838C819D818130910559F19A
:103BF0002C813D81223031052CF48C819D810097F0
:103C000069F05FC02C813D812230310589F18C81C2
:103C10009D818330910509F440C053C0AAE3B0E010
:103C2000EAE3F0E08081482F8A81282F30E081E0AC
:103C300090E0022E02C0880F991F0A94E2F7809547
:103C400084238C933EC0A7E3B0E0E7E3F0E08081FB
:103C5000482F8A81282F30E081E090E0022E02C0B8
:103C6000880F991F0A94E2F7809584238C9329C0CA
:103C7000A4E3B0E0E4E3F0E08081482F8A81282FBC
:103C800030E081E090E0022E02C0880F991F0A9474
:103C9000E2F7809584238C9314C0A1E3B0E0E1E3C4
:103CA000F0E08081482F8A81282F30E081E090E089
:103CB000022E02C0880F991F0A94E2F78095842390
:103CC0008C9327960FB6F894DEBF0FBECDBFCF9171
:103CD000DF910895DF93CF93CDB7DEB727970FB667
:103CE000F894DEBF0FBECDBF89836A834B838B817F
:103CF000813009F06FC08981282F30E03F832E8307
:103D00008E819F818130910549F12E813F81223042
:103D100031052CF48E819F81009761F0D2C02E81F5
:103D20003F812230310571F18E819F818330910571
:103D3000E9F1C7C0ABE3B0E0EBE3F0E08081482FEE
:103D40008A81282F30E081E090E0022E02C0880FA7
:103D5000991F0A94E2F7842B8C93B3C0A8E3B0E0D8
:103D6000E8E3F0E08081482F8A81282F30E081E06D
:103D700090E0022E02C0880F991F0A94E2F7842B6C
:103D80008C939FC0A5E3B0E0E5E3F0E08081482F8D
:103D90008A81282F30E081E090E0022E02C0880F57
:103DA000991F0A94E2F7842B8C938BC0A2E3B0E0B6
:103DB000E2E3F0E08081482F8A81282F30E081E023
:103DC00090E0022E02C0880F991F0A94E2F7842B1C
:103DD0008C9377C08B81882309F073C08981282F49
:103DE00030E03D832C838C819D818130910559F198
:103DF0002C813D81223031052CF48C819D810097EE
:103E000069F05FC02C813D812230310589F18C81C0
:103E10009D818330910509F440C053C0ABE3B0E00D
:103E2000EBE3F0E08081482F8A81282F30E081E0A9
:103E300090E0022E02C0880F991F0A94E2F7809545
:103E400084238C933EC0A8E3B0E0E8E3F0E08081F7
:103E5000482F8A81282F30E081E090E0022E02C0B6
:103E6000880F991F0A94E2F7809584238C9329C0C8
:103E7000A5E3B0E0E5E3F0E08081482F8A81282FB8
:103E800030E081E090E0022E02C0880F991F0A9472
:103E9000E2F7809584238C9314C0A2E3B0E0E2E3C0
:103EA000F0E08081482F8A81282F30E081E090E087
:103EB000022E02C0880F991F0A94E2F7809584238E
:103EC0008C9327960FB6F894DEBF0FBECDBFCF916F
:103ED000DF910895DF93CF9300D000D00F92CDB73C
:103EE000DEB78A836B8319828A81282F30E03D8375
:103EF0002C834C815D814130510541F18C819D8144
:103F00008230910534F42C813D812115310561F019
:103F100052C04C815D814230510551F18C819D81AF
:103F200083309105B9F147C0E9E3F0E08081282FA3
:103F300030E08B81882F90E0A90102C0559547950C
:103F40008A95E2F7CA018170898335C0E6E3F0E023
:103F50008081282F30E08B81882F90E0A90102C05A
:103F6000559547958A95E2F7CA018170898323C0E8
:103F7000E3E3F0E08081282F30E08B81882F90E010
:103F8000A90102C0559547958A95E2F7CA0181704B
:103F9000898311C0E0E3F0E08081282F30E08B813D
:103FA000882F90E0A90102C0559547958A95E2F7C0
:103FB000CA018170898389810F900F900F900F90B3
:103FC0000F90CF91DF910895DF93CF9300D000D071
:103FD000CDB7DEB789836A838981282F30E03C839F
:103FE0002B838B819C818130910549F12B813C8110
:103FF000223031052CF48B819C81009761F05AC0EE
:104000002B813C812230310571F18B819C81833081
:104010009105E9F14FC0ABE3B0E0EBE3F0E0808164
:10402000482F8A81282F30E081E090E0022E02C0E4
:10403000880F991F0A94E2F784278C933BC0A8E36A
:10404000B0E0E8E3F0E08081482F8A81282F30E05B
:1040500081E090E0022E02C0880F991F0A94E2F7D7
:1040600084278C9327C0A5E3B0E0E5E3F0E08081EE
:10407000482F8A81282F30E081E090E0022E02C094
:10408000880F991F0A94E2F784278C9313C0A2E348
:10409000B0E0E2E3F0E08081482F8A81282F30E011
:1040A00081E090E0022E02C0880F991F0A94E2F787
:1040B00084278C930F900F900F900F90CF91DF91EA
:1040C0000895DF93CF93CDB7DEB7AFE5B0E0EFE56E
:1040D000F0E0808180688C93CF91DF910895DF9329
:1040E000CF93CDB7DEB7AFE5B0E0EFE5F0E080818C
:1040F0008F778C93CF91DF910895DF93CF93CDB7D6
:10410000DEB76C970FB6F894DEBF0FBECDBF80E070
:1041100060E041E00E946A1D80E060E041E00E94B2
:104120006A1E80E090E0A0E8BFE3898F9A8FAB8F92
:10413000BC8F698D7A8D8B8D9C8D20E030E04AEFAD
:1041400054E40E942514DC01CB018D8B9E8BAF8B38
:10415000B88F6D897E898F89988D20E030E040E8A6
:104160005FE30E942B1688232CF481E090E09C8B67
:104170008B8B3FC06D897E898F89988D20E03FEFC2
:104180004FE757E40E94CB1518164CF5698D7A8DD0
:104190008B8D9C8D20E030E040E251E40E9425149C
:1041A000DC01CB01BC01CD010E94CE00DC01CB01C2
:1041B0009C8B8B8B0FC088EC90E09A8B898B8989C4
:1041C0009A890197F1F79A8B898B8B899C89019742
:1041D0009C8B8B8B8B899C89009769F714C06D89A8
:1041E0007E898F89988D0E94CE00DC01CB019C8B4B
:1041F0008B8B8B899C89988B8F878F85988901976A
:10420000F1F7988B8F8780E060E040E00E946A1EA3
:1042100080E090E0A0E8BFE38B879C87AD87BE87F6
:104220006B857C858D859E8520E030E04AEF54E4E7
:104230000E942514DC01CB018F839887A987BA8758
:104240006F81788589859A8520E030E040E85FE3DA
:104250000E942B1688232CF481E090E09E838D83AE
:104260003FC06F81788589859A8520E03FEF4FE7D1
:1042700057E40E94CB1518164CF56B857C858D850F
:104280009E8520E030E040E251E40E942514DC01EC
:10429000CB01BC01CD010E94CE00DC01CB019E838D
:1042A0008D830FC088EC90E09C838B838B819C81F5
:1042B0000197F1F79C838B838D819E8101979E836B
:1042C0008D838D819E81009769F714C06F817885F9
:1042D00089859A850E94CE00DC01CB019E838D8367
:1042E0008D819E819A83898389819A810197F1F7D3
:1042F0009A8389836C960FB6F894DEBF0FBECDBF4C
:10430000CF91DF910895DF93CF930F92CDB7DEB7B2
:10431000898380E062E041E00E946A1D80E061E004
:1043200041E00E946A1D80E062E040E00E946A1E57
:1043300080E061E040E00E946A1E81E060E041E0D0
:104340000E946A1D81E061E041E00E946A1D81E0F7
:1043500062E041E00E946A1D81E063E041E00E946A
:104360006A1D81E064E041E00E946A1D81E065E031
:1043700041E00E946A1D81E066E041E00E946A1D02
:1043800081E067E041E00E946A1D8981982F917069
:1043900081E060E0492F0E946A1E89818695982FEE
:1043A000917081E061E0492F0E946A1E89818695A3
:1043B0008695982F917081E062E0492F0E946A1ED5
:1043C0008981869586958695982F917081E063E026
:1043D000492F0E946A1E898182958F70982F917053
:1043E00081E064E0492F0E946A1E8981829586954A
:1043F0008770982F917081E065E0492F0E946A1EB6
:1044000089818295869586958370982F917081E039
:1044100066E0492F0E946A1E8981982F991F99276B
:10442000991F81E067E0492F0E946A1E0E947D204B
:104430000F90CF91DF910895DF93CF93CDB7DEB783
:104440002F970FB6F894DEBF0FBECDBF80E062E0BD
:1044500041E00E946A1D80E061E041E00E946A1D27
:1044600080E060E041E00E946A1D80E062E040E0A0
:104470000E946A1E80E060E040E00E946A1E80E0C8
:1044800090E0A0E8BFE38B879C87AD87BE876B85F4
:104490007C858D859E8520E030E04AEF54E40E94C3
:1044A0002514DC01CB018F839887A987BA876F8198
:1044B000788589859A8520E030E040E85FE30E94B6
:1044C0002B1688232CF481E090E09E838D833FC0DF
:1044D0006F81788589859A8520E03FEF4FE757E423
:1044E0000E94CB1518164CF56B857C858D859E85B5
:1044F00020E030E040E251E40E942514DC01CB01D1
:10450000BC01CD010E94CE00DC01CB019E838D83D6
:104510000FC088EC90E09C838B838B819C810197FA
:10452000F1F79C838B838D819E8101979E838D8380
:104530008D819E81009769F714C06F817885898588
:104540009A850E94CE00DC01CB019E838D838D81F4
:104550009E819A83898389819A810197F1F79A8351
:10456000898380E061E041E00E946A1E81E060E0B2
:1045700040E00E946A1D81E061E040E00E946A1D07
:1045800081E062E040E00E946A1D81E063E040E07B
:104590000E946A1D81E064E040E00E946A1D81E0A3
:1045A00065E040E00E946A1D81E066E040E00E9414
:1045B0006A1D81E067E040E00E946A1D80E060E0E3
:1045C00041E00E946A1E000000001F8681E060E05A
:1045D0000E946A1F982F8F85892B8F8781E061E069
:1045E0000E946A1F882F90E0880F991F982F8F854F
:1045F000892B8F8781E062E00E946A1F882F90E0FC
:10460000880F991F880F991F982F8F85892B8F8767
:1046100081E063E00E946A1F882F90E0880F991F55
:10462000880F991F880F991F982F8F85892B8F8747
:1046300081E064E00E946A1F882F90E08295929545
:10464000907F9827807F9827982F8F85892B8F8739
:1046500081E065E00E946A1F882F90E0880F991F13
:1046600082959295907F9827807F9827982F8F85A5
:10467000892B8F8781E066E00E946A1F882F90E077
:104680000024969587950794969587950794982F7B
:10469000802D982F8F85892B8F8780E060E040E008
:1046A0000E946A1E8F852F960FB6F894DEBF0FBE4C
:1046B000CDBFCF91DF910895DF93CF93CDB7DEB714
:1046C0002F970FB6F894DEBF0FBECDBF80E062E03B
:1046D00041E00E946A1D80E061E041E00E946A1DA5
:1046E00080E060E041E00E946A1D80E060E040E020
:1046F0000E946A1E80E090E0A0E8BFE38B879C8761
:10470000AD87BE876B857C858D859E8520E030E0FA
:104710004AEF54E40E942514DC01CB018F83988773
:10472000A987BA876F81788589859A8520E030E0EE
:1047300040E85FE30E942B1688232CF481E090E090
:104740009E838D833FC06F81788589859A8520E01F
:104750003FEF4FE757E40E94CB1518164CF56B85D9
:104760007C858D859E8520E030E040E251E40E940A
:104770002514DC01CB01BC01CD010E94CE00DC017F
:10478000CB019E838D830FC088EC90E09C838B834C
:104790008B819C810197F1F79C838B838D819E8116
:1047A00001979E838D838D819E81009769F714C048
:1047B0006F81788589859A850E94CE00DC01CB01C6
:1047C0009E838D838D819E819A83898389819A813D
:1047D0000197F1F79A83898380E062E041E00E94CB
:1047E0006A1E80E061E040E00E946A1E81E060E0B5
:1047F00040E00E946A1D81E061E040E00E946A1D85
:1048000081E062E040E00E946A1D81E063E040E0F8
:104810000E946A1D81E064E040E00E946A1D81E020
:1048200065E040E00E946A1D81E066E040E00E9491
:104830006A1D81E067E040E00E946A1D80E060E060
:1048400041E00E946A1E000000001F8681E060E0D7
:104850000E946A1F982F8F85892B8F8781E061E0E6
:104860000E946A1F882F90E0880F991F982F8F85CC
:10487000892B8F8781E062E00E946A1F882F90E079
:10488000880F991F880F991F982F8F85892B8F87E5
:1048900081E063E00E946A1F882F90E0880F991FD3
:1048A000880F991F880F991F982F8F85892B8F87C5
:1048B00081E064E00E946A1F882F90E082959295C3
:1048C000907F9827807F9827982F8F85892B8F87B7
:1048D00081E065E00E946A1F882F90E0880F991F91
:1048E00082959295907F9827807F9827982F8F8523
:1048F000892B8F8781E066E00E946A1F882F90E0F5
:104900000024969587950794969587950794982FF8
:10491000802D982F8F85892B8F8781E066E00E94FC
:104920006A1F882F90E09695982F882797958795EE
:10493000982F8F85892B8F8780E060E040E00E9470
:104940006A1E8F852F960FB6F894DEBF0FBECDBFBF
:10495000CF91DF910895DF93CF9300D00F92CDB721
:10496000DEB78A836B838B8189838A81882329F4CC
:10497000898180580E94832107C08A81813021F477
:10498000898180540E9483210F900F900F90CF91C6
:10499000DF910895DF93CF93CDB7DEB785E00E9416
:1049A0008321CF91DF910895DF93CF93CDB7DEB709
:1049B00087E00E948321CF91DF910895AF92BF924B
:1049C000CF92DF92EF92FF920F931F93DF93CF93DB
:1049D000CDB7DEB728970FB6F894DEBF0FBECDBFB8
:1049E00029833A834B835C836D837E838F8398878F
:1049F0000E941C22803129F481E060E00E94AB24F7
:104A00000AC00E941C22803531F480E060E00E94E0
:104A1000AB240E943E2880E062E041E00E946A1DD3
:104A200080E061E041E00E946A1D80E062E041E0D8
:104A30000E946A1E80E061E040E00E946A1E81E000
:104A400060E041E00E946A1D81E061E041E00E9477
:104A50006A1D81E062E041E00E946A1D81E063E03E
:104A600041E00E946A1D81E064E041E00E946A1D0D
:104A700081E065E041E00E946A1D81E066E041E07E
:104A80000E946A1D81E067E041E00E946A1D898101
:104A9000982F917081E060E0492F0E946A1E298161
:104AA0003A814B815C816D817E818F81988501E0A7
:104AB0000E944900A22EB32EC42ED52EE62EF72E2C
:104AC000082F192F2A2D3B2D4C2D5D2D6E2D7F2D5E
:104AD000802F912F822F982F917081E061E0492FD4
:104AE0000E946A1E29813A814B815C816D817E81A1
:104AF0008F81988502E00E944900A22EB32EC42E19
:104B0000D52EE62EF72E082F192F2A2D3B2D4C2DB2
:104B10005D2D6E2D7F2D802F912F822F982F9170DC
:104B200081E062E0492F0E946A1E29813A814B810F
:104B30005C816D817E818F81988503E00E944900B0
:104B4000A22EB32EC42ED52EE62EF72E082F192F07
:104B50002A2D3B2D4C2D5D2D6E2D7F2D802F912FDD
:104B6000822F982F917081E063E0492F0E946A1E86
:104B700029813A814B815C816D817E818F8198850D
:104B800004E00E944900A22EB32EC42ED52EE62E9C
:104B9000F72E082F192F2A2D3B2D4C2D5D2D6E2D14
:104BA0007F2D802F912F822F982F917081E064E0CC
:104BB000492F0E946A1E29813A814B815C816D8157
:104BC0007E818F81988505E00E944900A22EB32E38
:104BD000C42ED52EE62EF72E082F192F2A2D3B2D69
:104BE0004C2D5D2D6E2D7F2D802F912F822F982F94
:104BF000917081E065E0492F0E946A1E29813A8107
:104C00004B815C816D817E818F81988506E00E9459
:104C10004900A22EB32EC42ED52EE62EF72E082F35
:104C2000192F2A2D3B2D4C2D5D2D6E2D7F2D802F84
:104C3000912F822F982F917081E066E0492F0E947A
:104C40006A1E29813A814B815C816D817E818F81D1
:104C5000988507E00E944900A22EB32EC42ED52EBF
:104C6000E62EF72E082F192F2A2D3B2D4C2D5D2DCA
:104C70006E2D7F2D802F912F822F982F917081E0A4
:104C800067E0492F0E946A1E0E947D2028960FB679
:104C9000F894DEBF0FBECDBFCF91DF911F910F9172
:104CA000FF90EF90DF90CF90BF90AF900895DF938B
:104CB000CF93CDB7DEB7E8970FB6F894DEBF0FBE3F
:104CC000CDBF80E090E0A8E4B2E48DAB9EABAFAB8B
:104CD000B8AF6DA97EA98FA998AD20E030E04AEF6A
:104CE00054E40E942514DC01CB0189AB9AABABAB39
:104CF000BCAB69A97AA98BA99CA920E030E040E867
:104D00005FE30E942B1688232CF481E090E098AB9F
:104D10008FA73FC069A97AA98BA99CA920E03FEF82
:104D20004FE757E40E94CB1518164CF56DA97EA9E4
:104D30008FA998AD20E030E040E251E40E942514B4
:104D4000DC01CB01BC01CD010E94CE00DC01CB0116
:104D500098AB8FA70FC088EC90E09EA78DA78DA57C
:104D60009EA50197F1F79EA78DA78FA598A90197FA
:104D700098AB8FA78FA598A9009769F714C069A968
:104D80007AA98BA99CA90E94CE00DC01CB0198AB2B
:104D90008FA78FA598A99CA78BA78BA59CA50197EA
:104DA000F1F79CA78BA788E30E94832180E090E025
:104DB000A0E8BFE38FA398A7A9A7BAA76FA178A57A
:104DC00089A59AA520E030E04AEF54E40E9425141A
:104DD000DC01CB018BA39CA3ADA3BEA36BA17CA1E3
:104DE0008DA19EA120E030E040E85FE30E942B16F9
:104DF00088232CF481E090E09AA389A33FC06BA1A3
:104E00007CA18DA19EA120E03FEF4FE757E40E94D7
:104E1000CB1518164CF56FA178A589A59AA520E0A9
:104E200030E040E251E40E942514DC01CB01BC01DA
:104E3000CD010E94CE00DC01CB019AA389A30FC053
:104E400088EC90E098A38F8F8F8D98A10197F1F750
:104E500098A38F8F89A19AA101979AA389A389A169
:104E60009AA1009769F714C06BA17CA18DA19EA1A6
:104E70000E94CE00DC01CB019AA389A389A19AA14B
:104E80009E8F8D8F8D8D9E8D0197F1F79E8F8D8FCB
:104E90008CE00E94832180E090E0A0E8BFE3898F4E
:104EA0009A8FAB8FBC8F698D7A8D8B8D9C8D20E016
:104EB00030E04AEF54E40E942514DC01CB018D8BD5
:104EC0009E8BAF8BB88F6D897E898F89988D20E0FE
:104ED00030E040E85FE30E942B1688232CF481E049
:104EE00090E09C8B8B8B3FC06D897E898F89988DDC
:104EF00020E03FEF4FE757E40E94CB1518164CF522
:104F0000698D7A8D8B8D9C8D20E030E040E251E4FC
:104F10000E942514DC01CB01BC01CD010E94CE0012
:104F2000DC01CB019C8B8B8B0FC088EC90E09A8BC3
:104F3000898B89899A890197F1F79A8B898B8B895B
:104F40009C8901979C8B8B8B8B899C89009769F737
:104F500014C06D897E898F89988D0E94CE00DC01F6
:104F6000CB019C8B8B8B8B899C89988B8F878F85B2
:104F700098890197F1F7988B8F8781E00E948321B0
:104F800080E090E0A0E0B0E48B879C87AD87BE878F
:104F90006B857C858D859E8520E030E04AEF54E46A
:104FA0000E942514DC01CB018F839887A987BA87DB
:104FB0006F81788589859A8520E030E040E85FE35D
:104FC0000E942B1688232CF481E090E09E838D8331
:104FD0003FC06F81788589859A8520E03FEF4FE754
:104FE00057E40E94CB1518164CF56B857C858D8592
:104FF0009E8520E030E040E251E40E942514DC016F
:10500000CB01BC01CD010E94CE00DC01CB019E830F
:105010008D830FC088EC90E09C838B838B819C8177
:105020000197F1F79C838B838D819E8101979E83ED
:105030008D838D819E81009769F714C06F8178857B
:1050400089859A850E94CE00DC01CB019E838D83E9
:105050008D819E819A83898389819A810197F1F755
:105060009A83898386E00E948321E8960FB6F8949C
:10507000DEBF0FBECDBFCF91DF910895DF93CF93F9
:10508000CDB7DEB781E00E948321CF91DF910895F3
:10509000AF92BF92CF92DF92EF92FF920F931F9346
:1050A000DF93CF9300D000D0CDB7DEB79C838B8346
:1050B0001A8219821EC029813A818B819C81FC0150
:1050C000E20FF31F8081A82EBB24CC24DD24EE2424
:1050D000FF2487012A2D3B2D4C2D5D2D6E2D7F2D1C
:1050E000802F912F0E94DE2489819A8101969A83D4
:1050F000898329813A818B819C81FC01E20FF31F16
:1051000080818823C1F60F900F900F900F90CF9160
:10511000DF911F910F91FF90EF90DF90CF90BF90A4
:10512000AF900895AF92BF92CF92DF92EF92FF922D
:105130000F931F93DF93CF93CDB7DEB76C970FB666
:10514000F894DEBF0FBECDBFCE0103969C8B8B8B38
:10515000E4EAF1E0FE8BED8BF8E0FF8BED89FE8950
:1051600000808D899E8901969E8B8D8BEB89FC89B1
:1051700000828B899C8901969C8B8B8B9F89915097
:105180009F8BEF89EE2351F7CE010B96998F888F75
:10519000ECE9F1E0FB8FEA8FF8E0FC8FEA8DFB8D04
:1051A00000808A8D9B8D01969B8F8A8FE88DF98D6B
:1051B0000082888D998D0196998F888F9C8D915052
:1051C0009C8FEC8DEE2351F71A828A81805C0E94BD
:1051D000832119821DC08981282F30E0CE010B96D2
:1051E000FC01E20FF31F8081A82EBB24CC24DD2418
:1051F000EE24FF2487012A2D3B2D4C2D5D2D6E2D95
:105200007F2D802F912F0E94DE2489818F5F8983DB
:105210008981883000F386E00E94832180E065E088
:105220000E94AB2420E030E040E050E060E070E01D
:1052300080E090E00E94DE246C960FB6F894DEBF0A
:105240000FBECDBFCF91DF911F910F91FF90EF90D7
:10525000DF90CF90BF90AF900895AF92BF92CF9262
:10526000DF92EF92FF920F931F93DF93CF93CDB70F
:10527000DEB7CF56D0400FB6F894DEBF0FBECDBF1D
:10528000298B3A8B4B8B5C8B6D8B7E8B8F8B988FA6
:1052900089899A89892B9B89892B9C89892B9D894E
:1052A000892B9E89892B9F89892B988D892B88230F
:1052B00059F420E330E040E050E060E070E080E04E
:1052C00090E00E94DE2418C480E1898787E28A8703
:1052D0001B861C861D861E861F86188A888D88233D
:1052E000D4F0888D882309F0F5C38F89882309F0CD
:1052F000F1C38E89882309F0EDC38D89882309F0D5
:10530000E9C38C89882309F0E5C38B89882309F0D8
:10531000E1C38A89DFC32DE230E040E050E060E085
:1053200070E080E090E00E94DE241A8E1B8E1C8EBE
:105330001D8E1E8E1F8E18A219A299899AA38A8982
:105340008BA39B899CA38C898DA39D899EA38E8909
:105350008FA39F8998A7888D89A79A8D8AA1981B6A
:105360009AA791E09AAB8AA59A8D981708F01AAA85
:105370008B8D9BA1891B8BA781E08BAB9BA58B8D14
:10538000891708F01BAA9BA58AA9981B9CAB91E0E2
:105390009DAB8CA99BA5981708F01DAA8BA99DA968
:1053A000892B8BAB8CA98BA79C8D8CA1981B9CA760
:1053B00091E09EAB8CA59C8D981708F01EAA8CA539
:1053C0009BA9891B8FAB81E088AF9FA98CA589170A
:1053D00008F018AE9EA988AD982B9EAB9FA99CA7FC
:1053E0008D8D9DA1891B8DA781E089AF9DA58D8D98
:1053F000891708F019AE9DA58EA9981B9AAF91E068
:105400009BAF8AAD9DA5981708F01BAE89AD9BADEB
:10541000892B89AF8AAD8DA79E8D8EA1981B9EA7E3
:1054200091E09CAF8EA59E8D981708F01CAE8EA5BE
:1054300099AD891B8DAF81E08EAF9DAD8EA589178B
:1054400008F01EAE9CAD8EAD982B9CAF9DAD9EA777
:105450008F8D9FA1891B8FA781E08FAF9FA58F8D17
:10546000891708F01FAE9FA58CAD981B21969FAFA2
:10547000219791E022969FAF229721968FAD219799
:105480009FA5981718F022961FAE22978FAD2296EF
:105490009FAD2297892B8FAF21968FAD21978FA734
:1054A00098A188A5981B98AB91E023969FAF23976E
:1054B00088A998A1981718F023961FAE239788A95A
:1054C0009FAD891B24968FAF249781E025968FAFDF
:1054D000259724969FAD249788A9891718F02596BB
:1054E0001FAE259723969FAD239725968FAD2597C1
:1054F000982B23969FAF239724969FAD249798AB24
:1055000089A199A5891B89AB89A923969FAD23976A
:10551000891B89AB8AA5898B9BA59A8B8CA58B8BC4
:105520009DA59C8B8EA58D8B9FA59E8B88A98F8B0F
:1055300099A9988FCFC2A984BA84CB84DC84ED84E6
:10554000FE840F8518892A2D3B2D4C2D5D2D6E2D47
:105550007F2D802F912F0F2EFAE0AF2EF02DBB2440
:10556000CC24DD24EE24FF2400E010E00E9416028B
:10557000A22EB32EC42ED52EE62EF72E082F192FCD
:10558000A986BA86CB86DC86ED86FE860F87188BC9
:105590009889888D89177CF29889888D9817D1F51C
:1055A0009F858F89891738F29F858F89981791F584
:1055B0009E858E89891708F4BECF9E858E8998179F
:1055C00049F59D858D89891708F4B5CF9D858D890D
:1055D000981701F59C858C89891708F4ACCF9C85B8
:1055E0008C899817B9F49B858B89891708F4A3CF08
:1055F0009B858B89981771F49A858A89891708F495
:105600009ACF9A858A89981729F499858989891763
:1056100008F491CF29893A894B895C896D897E8903
:105620008F89988DA984BA84CB84DC84ED84FE8430
:105630000F8518890E941602A22EB32EC42ED52ED5
:10564000E62EF72E082F192FA982BA82CB82DC8290
:10565000ED82FE820F831887898126968FAF269769
:105660009A8127969FAF27978B8128968FAF28978F
:105670009C8129969FAF29978D812A968FAF2A9773
:105680009E812B969FAF2B978F812C968FAF2C9757
:1056900098852D969FAF2D9780E32E968FAF2E97EE
:1056A0002F961FAE2F9760961FAE609761961FAE24
:1056B000619762961FAE629763961FAE639764967A
:1056C0001FAE649765961FAE659726969FAD269789
:1056D0002E968FAD2E97980F66969FAF669791E0A6
:1056E0006E969FAF6E9766968FAD669726969FAD26
:1056F0002697891718F06E961FAE6E9727968FAD76
:1057000027972F969FAD2F97890F67968FAF679733
:1057100081E06F968FAF6F9767969FAD67972796DB
:105720008FAD2797981718F06F961FAE6F976E96EC
:105730009FAD6E9767968FAD6797980FA0969FAFB6
:10574000A09791E0A1969FAFA197A0968FADA0974B
:1057500067969FAD6797891718F0A1961FAEA1971E
:105760006F968FAD6F97A1969FADA197892B6F967E
:105770008FAF6F97A0968FADA09767968FAF679703
:1057800028969FAD289760968FAD6097980F689682
:105790009FAF689791E0A2969FAFA29768968FAD52
:1057A000689728969FAD2897891718F0A2961FAE84
:1057B000A2976F968FAD6F9768969FAD6897890F88
:1057C000A3968FAFA39781E0A4968FAFA497A396DB
:1057D0009FADA39768968FAD6897981718F0A49619
:1057E0001FAEA497A2969FADA297A4968FADA49743
:1057F000982BA2969FAFA297A3969FADA39768966A
:105800009FAF689729968FAD299761969FAD619755
:10581000890F69968FAF699781E0A5968FAFA5979D
:1058200069969FAD699729968FAD2997981718F0BB
:10583000A5961FAEA597A2969FADA29769968FAD2C
:105840006997980FA6969FAFA69791E0A7969FAFEE
:10585000A797A6968FADA69769969FAD699789176A
:1058600018F0A7961FAEA797A5968FADA597A796F8
:105870009FADA797892BA5968FAFA597A6968FADBD
:10588000A69769968FAF69972A969FAD2A976296D9
:105890008FAD6297980F6A969FAF6A9791E0A8962E
:1058A0009FAFA8976A968FAD6A972A969FAD2A9761
:1058B000891718F0A8961FAEA897A5968FADA59743
:1058C0006A969FAD6A97890FA9968FAFA99781E0D5
:1058D000AA968FAFAA97A9969FADA9976A968FAD02
:1058E0006A97981718F0AA961FAEAA97A8969FAD28
:1058F000A897AA968FADAA97982BA8969FAFA8971E
:10590000A9969FADA9976A969FAF6A972B968FAD80
:105910002B9763969FAD6397890F6B968FAF6B97AD
:1059200081E0AB968FAFAB976B969FAD6B972B9645
:105930008FAD2B97981718F0AB961FAEAB97A89624
:105940009FADA8976B968FAD6B97980FAC969FAF56
:10595000AC9791E0AD969FAFAD97AC968FADAC97FD
:105960006B969FAD6B97891718F0AD961FAEAD97EC
:10597000AB968FADAB97AD969FADAD97892BAB96A0
:105980008FAFAB97AC968FADAC976B968FAF6B9795
:105990002C969FAD2C9764968FAD6497980F6C965C
:1059A0009FAF6C9791E0AE969FAFAE976C968FAD20
:1059B0006C972C969FAD2C97891718F0AE961FAE5A
:1059C000AE97AB968FADAB976C969FAD6C97890FEA
:1059D000AF968FAFAF9781E0E0968FAFE097AF962D
:1059E0009FADAF976C968FAD6C97981718F0E096B7
:1059F0001FAEE097AE969FADAE97E0968FADE09765
:105A0000982BAE969FAFAE97AF969FADAF976C9623
:105A10009FAF6C972D968FAD2D9765969FAD65972F
:105A2000890F6D968FAF6D97AE968FADAE976D96D1
:105A30009FAD6D97890F6D968FAF6D976696AFACE2
:105A400066976796BFAC67976896CFAC689769967C
:105A5000DFAC69976A96EFAC6A976B96FFAC6B9771
:105A60006C960FAD6C976D961FAD6D972A2D3B2DE3
:105A70004C2D5D2D6E2D7F2D802F912F0E94DE24C9
:105A8000A988BA88CB88DC88ED88FE880F89188DB4
:105A90002A2D3B2D4C2D5D2D6E2D7F2D802F912F8E
:105AA000A984BA84CB84DC84ED84FE840F851889B4
:105AB0000E943E0AA22EB32EC42ED52EE62EF72E1D
:105AC000082F192FA98ABA8ACB8ADC8AED8AFE8A26
:105AD0000F8B188F89899A89892B9B89892B9C899F
