:100000000C942A000C943C000C943C000C943C0092
:100010000C943C000C943C000C943C000C943C0070
:100020000C943C000C943C000C943C000C943C0060
:100030000C9401050C943C000C943C000C943C0086
:100040000C943C000C943C000C943C000C943C0040
:100050000C943C0011241FBECFE5D8E0DEBFCDBF1D
:1000600010E0A0E6B0E001C01D92A336B107E1F7B1
:100070000E9444050C9482050C940000DF93CF93FA
:1000800000D000D000D0CDB7DEB789836A838A81E3
:10009000813099F58981282F30E03E832D838D8131
:1000A0009E8181309105D1F02D813E812230310534
:1000B0002CF48D819E81009761F050C02D813E818E
:1000C0002230310581F08D819E818330910581F050
:1000D00045C0EAE3F0E08FEF808340C0E7E3F0E063
:1000E0008FEF80833BC0E4E3F0E08FEF808336C086
:1000F000E1E3F0E08FEF808331C08A81882371F5DE
:100100008981282F30E03C832B838B819C81813037
:100110009105C9F02B813C81223031052CF48B8173
:100120009C81009761F01AC02B813C8122303105FF
:1001300071F08B819C818330910569F00FC0EAE3F7
:10014000F0E010820BC0E7E3F0E0108207C0E4E3C8
:10015000F0E0108203C0E1E3F0E0108226960FB6D3
:10016000F894DEBF0FBECDBFCF91DF910895DF932E
:10017000CF9300D000D0CDB7DEB789836A83898161
:10018000282F30E03C832B838B819C81813091052B
:10019000D1F02B813C81223031052CF48B819C8164
:1001A000009761F01EC02B813C812230310581F027
:1001B0008B819C818330910581F013C0EBE3F0E0EB
:1001C0008A8180830EC0E8E3F0E08A81808309C0E1
:1001D000E5E3F0E08A81808304C0E2E3F0E08A8115
:1001E00080830F900F900F900F90CF91DF91089523
:1001F000DF93CF93CDB7DEB727970FB6F894DEBF66
:100200000FBECDBF89836A834B838B81813009F018
:100210006FC08981282F30E03F832E838E819F819C
:100220008130910549F12E813F81223031052CF436
:100230008E819F81009761F0D2C02E813F81223054
:10024000310571F18E819F8183309105E9F1C7C03D
:10025000AAE3B0E0EAE3F0E08081482F8A81282F0A
:1002600030E081E090E0022E02C0880F991F0A94CE
:10027000E2F7842B8C93B3C0A7E3B0E0E7E3F0E0B0
:100280008081482F8A81282F30E081E090E0022E83
:1002900002C0880F991F0A94E2F7842B8C939FC0A9
:1002A000A4E3B0E0E4E3F0E08081482F8A81282FC6
:1002B00030E081E090E0022E02C0880F991F0A947E
:1002C000E2F7842B8C938BC0A1E3B0E0E1E3F0E094
:1002D0008081482F8A81282F30E081E090E0022E33
:1002E00002C0880F991F0A94E2F7842B8C9377C081
:1002F0008B81882309F073C08981282F30E03D83EA
:100300002C838C819D818130910559F12C813D8117
:10031000223031052CF48C819D81009769F05FC0FB
:100320002C813D812230310589F18C819D81833082
:10033000910509F440C053C0AAE3B0E0EAE3F0E05D
:100340008081482F8A81282F30E081E090E0022EC2
:1003500002C0880F991F0A94E2F7809584238C933A
:100360003EC0A7E3B0E0E7E3F0E08081482F8A8158
:10037000282F30E081E090E0022E02C0880F991F04
:100380000A94E2F7809584238C9329C0A4E3B0E01B
:10039000E4E3F0E08081482F8A81282F30E081E07B
:1003A00090E0022E02C0880F991F0A94E2F7809510
:1003B00084238C9314C0A1E3B0E0E1E3F0E08081FA
:1003C000482F8A81282F30E081E090E0022E02C081
:1003D000880F991F0A94E2F7809584238C932796BF
:1003E0000FB6F894DEBF0FBECDBFCF91DF91089559
:1003F000DF93CF93CDB7DEB727970FB6F894DEBF64
:100400000FBECDBF89836A834B838B81813009F016
:100410006FC08981282F30E03F832E838E819F819A
:100420008130910549F12E813F81223031052CF434
:100430008E819F81009761F0D2C02E813F81223052
:10044000310571F18E819F8183309105E9F1C7C03B
:10045000ABE3B0E0EBE3F0E08081482F8A81282F06
:1004600030E081E090E0022E02C0880F991F0A94CC
:10047000E2F7842B8C93B3C0A8E3B0E0E8E3F0E0AC
:100480008081482F8A81282F30E081E090E0022E81
:1004900002C0880F991F0A94E2F7842B8C939FC0A7
:1004A000A5E3B0E0E5E3F0E08081482F8A81282FC2
:1004B00030E081E090E0022E02C0880F991F0A947C
:1004C000E2F7842B8C938BC0A2E3B0E0E2E3F0E090
:1004D0008081482F8A81282F30E081E090E0022E31
:1004E00002C0880F991F0A94E2F7842B8C9377C07F
:1004F0008B81882309F073C08981282F30E03D83E8
:100500002C838C819D818130910559F12C813D8115
:10051000223031052CF48C819D81009769F05FC0F9
:100520002C813D812230310589F18C819D81833080
:10053000910509F440C053C0ABE3B0E0EBE3F0E059
:100540008081482F8A81282F30E081E090E0022EC0
:1005500002C0880F991F0A94E2F7809584238C9338
:100560003EC0A8E3B0E0E8E3F0E08081482F8A8154
:10057000282F30E081E090E0022E02C0880F991F02
:100580000A94E2F7809584238C9329C0A5E3B0E018
:10059000E5E3F0E08081482F8A81282F30E081E078
:1005A00090E0022E02C0880F991F0A94E2F780950E
:1005B00084238C9314C0A2E3B0E0E2E3F0E08081F6
:1005C000482F8A81282F30E081E090E0022E02C07F
:1005D000880F991F0A94E2F7809584238C932796BD
:1005E0000FB6F894DEBF0FBECDBFCF91DF91089557
:1005F000DF93CF9300D000D00F92CDB7DEB78A83C0
:100600006B8319828A81282F30E03D832C834C81B3
:100610005D814130510541F18C819D818230910590
:1006200034F42C813D812115310561F052C04C819B
:100630005D814230510551F18C819D81833091055E
:10064000B9F147C0E9E3F0E08081282F30E08B81E9
:10065000882F90E0A90102C0559547958A95E2F749
:10066000CA018170898335C0E6E3F0E08081282FDC
:1006700030E08B81882F90E0A90102C05595479505
:100680008A95E2F7CA018170898323C0E3E3F0E031
:100690008081282F30E08B81882F90E0A90102C053
:1006A000559547958A95E2F7CA018170898311C0F3
:1006B000E0E3F0E08081282F30E08B81882F90E00C
:1006C000A90102C0559547958A95E2F7CA01817044
:1006D000898389810F900F900F900F900F90CF9189
:1006E000DF910895DF93CF9300D000D0CDB7DEB770
:1006F00089836A838981282F30E03C832B838B8117
:100700009C818130910549F12B813C81223031055A
:100710002CF48B819C81009761F05AC02B813C8125
:100720002230310571F18B819C8183309105E9F193
:100730004FC0ABE3B0E0EBE3F0E08081482F8A816B
:10074000282F30E081E090E0022E02C0880F991F30
:100750000A94E2F784278C933BC0ABE3B0E0EBE371
:10076000F0E08081482F8A81282F30E081E090E0FE
:10077000022E02C0880F991F0A94E2F784278C93F7
:1007800027C0ABE3B0E0EBE3F0E08081482F8A8143
:10079000282F30E081E090E0022E02C0880F991FE0
:1007A0000A94E2F784278C9313C0ABE3B0E0EBE349
:1007B000F0E08081482F8A81282F30E081E090E0AE
:1007C000022E02C0880F991F0A94E2F784278C93A7
:1007D0000F900F900F900F90CF91DF910895DF93BE
:1007E000CF9300D0CDB7DEB78983EDE2F0E0108281
:1007F000ADE2B0E0EDE2F0E0808184608C93ADE2A8
:10080000B0E0EDE2F0E080818C93ADE2B0E0EDE2AB
:10081000F0E0808180628C9389818130E1F5ADE2E6
:10082000B0E0EDE2F0E0808180618C9381E064E0F3
:1008300041E00E94F80081E065E041E00E94F8009C
:1008400081E066E040E00E94F80081E067E041E07E
:100850000E94F800ADE2B0E0EDE2F0E080818C9320
:10086000ADE2B0E0EDE2F0E0808182608C93EEE2F8
:10087000F0E08081EEE2F0E01082AEE2B0E0EEE285
:10088000F0E080818C93ADE2B0E0EDE2F0E08081B9
:1008900080648C932AC08981882339F5ADE2B0E069
:1008A000EDE2F0E080818C9381E064E040E00E9422
:1008B000F80081E065E040E00E94F80081E066E039
:1008C00041E00E94F80081E067E040E00E94F8000B
:1008D000ADE2B0E0EDE2F0E080818C93ADE2B0E01B
:1008E000EDE2F0E0808180648C930F900F90CF91C7
:1008F000DF910895DF93CF93CDB7DEB781E064E059
:1009000040E00E94F801CF91DF910895DF93CF93EB
:10091000CDB7DEB781E064E041E00E94F801CF91FD
:10092000DF910895DF93CF93CDB7DEB7ADE2B0E0AE
:10093000EDE2F0E0808180648C93CF91DF910895A7
:10094000DF93CF93CDB7DEB7ADE2B0E0EDE2F0E0FC
:1009500080818F7B8C93CF91DF910895DF93CF932C
:10096000CDB7DEB7ADE2B0E0EDE2F0E080818068C7
:100970008C93CF91DF910895DF93CF93CDB7DEB7FE
:10098000ADE2B0E0EDE2F0E080818F778C93CF9123
:10099000DF910895DF93CF9300D00F92CDB7DEB7EC
:1009A00089837B836A83EFE2F0E089818083EEE2D2
:1009B000F0E080818823DCF7EFE2F0E08081EA81DB
:1009C000FB8180830F900F900F90CF91DF9108955E
:1009D000DF93CF9300D00F92CDB7DEB789837B83AF
:1009E0006A83EFE2F0E0898180838A819B81909322
:1009F0006100809360000F900F900F90CF91DF9176
:100A000008951F920F920FB60F9211242F933F93C8
:100A10004F935F936F937F938F939F93AF93BF9306
:100A2000EF93FF93DF93CF93CDB7DEB78091600054
:100A300090916100009741F0E0916000F0916100B9
:100A4000AFE2B0E08C910995CF91DF91FF91EF91EA
:100A5000BF91AF919F918F917F916F915F914F91D6
:100A60003F912F910F900FBE0F901F901895DF931D
:100A7000CF930F92CDB7DEB78983898180936200CF
:100A80000F90CF91DF910895DF93CF93CDB7DEB76D
:100A900083E061E00E943E0080E067E041E00E9468
:100AA000F80080E066E041E00E94F80080E065E048
:100AB00041E00E94F80080E00E94EF0380E066E0E1
:100AC00041E00E94F80122E630E084E1B9010E9491
:100AD000CA0480E065E041E00E94F8018091620074
:100AE0008C3031F480E067E041E00E94F801E6CF0D
:100AF00080916200813111F780E067E040E00E9460
:080B0000F801DCCFF894FFCFEF
:00000001FF
